FlashProtect=0
CRC=0x4609F9CD
CRC=0x91B3AA21
CRC=0x9B2574D1
CRC=0xFA9B29A2
CRC=0x5112FDDB
CRC=0x8F4A70FF
CRC=0x546B69C9
CRC=0x6CFB1725
CRC=0x72D1256D
CRC=0x5948F0B4
CRC=0x4A4C6322
CRC=0x7F3C43E1
CRC=0x15F884F4
CRC=0x2698DADE
CRC=0x1925B77E
CRC=0xF926D224
CRC=0x9DC273C9
CRC=0xCFC34EA7
CRC=0xB5565DD3
CRC=0xEC37B94B
FlashProtect=1
Error=Flashboot_eCRCError               
Program memory
8004000 0000000000000000000000000000000000000000000000000000000000000000
8004020 0000000000000000000000000000000000000000000000000000000000000000
8004040 0000000000000000000000000000000000000000000000000000000000000000
8004060 0000000000000000000000000000000000000000000000000000000000000000
8004080 0000000000000000000000000000000000000000000000000000000000000000
80040a0 0000000000000000000000000000000000000000000000000000000000000000
80040c0 0000000000000000000000000000000000000000000000000000000000000000
80040e0 0000000000000000000000000000000000000000000000000000000000000000
8004100 0000000000000000000000000000000000000000000000000000000000000000
8004120 0000000000000000000000000000000000000000000000000000000000000000
8004140 0000000000000000000000000000000000000000000000000000000000000000
8004160 0000000000000000000000000000000000000000000000000000000000000000
8004180 0000000000000000000000000000000000000000000000000000000000000000
80041a0 0000000000000000000000000000000000000000000000000000000000000000
80041c0 0000000000000000000000000000000000000000000000000000000000000000
80041e0 0000000000000000000000000000000000000000000000000000000000000000
8004200 0000000000000000000000000000000000000000000000000000000000000000
8004220 0000000000000000000000000000000000000000000000000000000000000000
8004240 0000000000000000000000000000000000000000000000000000000000000000
8004260 0000000000000000000000000000000000000000000000000000000000000000
8004280 0000000000000000000000000000000000000000000000000000000000000000
80042a0 0000000000000000000000000000000000000000000000000000000000000000
80042c0 0000000000000000000000000000000000000000000000000000000000000000
80042e0 0000000000000000000000000000000000000000000000000000000000000000
8004300 0000000000000000000000000000000000000000000000000000000000000000
8004320 0000000000000000000000000000000000000000000000000000000000000000
8004340 0000000000000000000000000000000000000000000000000000000000000000
8004360 0000000000000000000000000000000000000000000000000000000000000000
8004380 0000000000000000000000000000000000000000000000000000000000000000
80043a0 0000000000000000000000000000000000000000000000000000000000000000
80043c0 0000000000000000000000000000000000000000000000000000000000000000
80043e0 0000000000000000000000000000000000000000000000000000000000000000
8004400 0000000000000000000000000000000000000000000000000000000000000000
8004420 0000000000000000000000000000000000000000000000000000000000000000
8004440 0000000000000000000000000000000000000000000000000000000000000000
8004460 0000000000000000000000000000000000000000000000000000000000000000
8004480 0000000000000000000000000000000000000000000000000000000000000000
80044a0 0000000000000000000000000000000000000000000000000000000000000000
80044c0 0000000000000000000000000000000000000000000000000000000000000000
80044e0 0000000000000000000000000000000000000000000000000000000000000000
8004500 0000000000000000000000000000000000000000000000000000000000000000
8004520 0000000000000000000000000000000000000000000000000000000000000000
8004540 0000000000000000000000000000000000000000000000000000000000000000
8004560 0000000000000000000000000000000000000000000000000000000000000000
8004580 0000000000000000000000000000000000000000000000000000000000000000
80045a0 0000000000000000000000000000000000000000000000000000000000000000
80045c0 0000000000000000000000000000000000000000000000000000000000000000
80045e0 0000000000000000000000000000000000000000000000000000000000000000
8004600 0000000000000000000000000000000000000000000000000000000000000000
8004620 0000000000000000000000000000000000000000000000000000000000000000
8004640 0000000000000000000000000000000000000000000000000000000000000000
8004660 0000000000000000000000000000000000000000000000000000000000000000
8004680 0000000000000000000000000000000000000000000000000000000000000000
80046a0 0000000000000000000000000000000000000000000000000000000000000000
80046c0 0000000000000000000000000000000000000000000000000000000000000000
80046e0 0000000000000000000000000000000000000000000000000000000000000000
8004700 0000000000000000000000000000000000000000000000000000000000000000
8004720 0000000000000000000000000000000000000000000000000000000000000000
8004740 0000000000000000000000000000000000000000000000000000000000000000
8004760 0000000000000000000000000000000000000000000000000000000000000000
8004780 0000000000000000000000000000000000000000000000000000000000000000
80047a0 0000000000000000000000000000000000000000000000000000000000000000
80047c0 0000000000000000000000000000000000000000000000000000000000000000
80047e0 0000000000000000000000000000000000000000000000000000000000000000
8004800 0000000000000000000000000000000000000000000000000000000000000000
8004820 0000000000000000000000000000000000000000000000000000000000000000
8004840 0000000000000000000000000000000000000000000000000000000000000000
8004860 0000000000000000000000000000000000000000000000000000000000000000
8004880 0000000000000000000000000000000000000000000000000000000000000000
80048a0 0000000000000000000000000000000000000000000000000000000000000000
80048c0 0000000000000000000000000000000000000000000000000000000000000000
80048e0 0000000000000000000000000000000000000000000000000000000000000000
8004900 0000000000000000000000000000000000000000000000000000000000000000
8004920 0000000000000000000000000000000000000000000000000000000000000000
8004940 0000000000000000000000000000000000000000000000000000000000000000
8004960 0000000000000000000000000000000000000000000000000000000000000000
8004980 0000000000000000000000000000000000000000000000000000000000000000
80049a0 0000000000000000000000000000000000000000000000000000000000000000
80049c0 0000000000000000000000000000000000000000000000000000000000000000
80049e0 0000000000000000000000000000000000000000000000000000000000000000
8004a00 0000000000000000000000000000000000000000000000000000000000000000
8004a20 0000000000000000000000000000000000000000000000000000000000000000
8004a40 0000000000000000000000000000000000000000000000000000000000000000
8004a60 0000000000000000000000000000000000000000000000000000000000000000
8004a80 0000000000000000000000000000000000000000000000000000000000000000
8004aa0 0000000000000000000000000000000000000000000000000000000000000000
8004ac0 0000000000000000000000000000000000000000000000000000000000000000
8004ae0 0000000000000000000000000000000000000000000000000000000000000000
8004b00 0000000000000000000000000000000000000000000000000000000000000000
8004b20 0000000000000000000000000000000000000000000000000000000000000000
8004b40 0000000000000000000000000000000000000000000000000000000000000000
8004b60 0000000000000000000000000000000000000000000000000000000000000000
8004b80 0000000000000000000000000000000000000000000000000000000000000000
8004ba0 0000000000000000000000000000000000000000000000000000000000000000
8004bc0 0000000000000000000000000000000000000000000000000000000000000000
8004be0 0000000000000000000000000000000000000000000000000000000000000000
8004c00 0000000000000000000000000000000000000000000000000000000000000000
8004c20 0000000000000000000000000000000000000000000000000000000000000000
8004c40 0000000000000000000000000000000000000000000000000000000000000000
8004c60 0000000000000000000000000000000000000000000000000000000000000000
8004c80 0000000000000000000000000000000000000000000000000000000000000000
8004ca0 0000000000000000000000000000000000000000000000000000000000000000
8004cc0 0000000000000000000000000000000000000000000000000000000000000000
8004ce0 0000000000000000000000000000000000000000000000000000000000000000
8004d00 0000000000000000000000000000000000000000000000000000000000000000
8004d20 0000000000000000000000000000000000000000000000000000000000000000
8004d40 0000000000000000000000000000000000000000000000000000000000000000
8004d60 0000000000000000000000000000000000000000000000000000000000000000
8004d80 0000000000000000000000000000000000000000000000000000000000000000
8004da0 0000000000000000000000000000000000000000000000000000000000000000
8004dc0 0000000000000000000000000000000000000000000000000000000000000000
8004de0 0000000000000000000000000000000000000000000000000000000000000000
8004e00 0000000000000000000000000000000000000000000000000000000000000000
8004e20 0000000000000000000000000000000000000000000000000000000000000000
8004e40 0000000000000000000000000000000000000000000000000000000000000000
8004e60 0000000000000000000000000000000000000000000000000000000000000000
8004e80 0000000000000000000000000000000000000000000000000000000000000000
8004ea0 0000000000000000000000000000000000000000000000000000000000000000
8004ec0 0000000000000000000000000000000000000000000000000000000000000000
8004ee0 0000000000000000000000000000000000000000000000000000000000000000
8004f00 0000000000000000000000000000000000000000000000000000000000000000
8004f20 0000000000000000000000000000000000000000000000000000000000000000
8004f40 0000000000000000000000000000000000000000000000000000000000000000
8004f60 0000000000000000000000000000000000000000000000000000000000000000
8004f80 0000000000000000000000000000000000000000000000000000000000000000
8004fa0 0000000000000000000000000000000000000000000000000000000000000000
8004fc0 0000000000000000000000000000000000000000000000000000000000000000
8004fe0 0000000000000000000000000000000000000000000000000000000000000000
8005000 0000000000000000000000000000000000000000000000000000000000000000
8005020 0000000000000000000000000000000000000000000000000000000000000000
8005040 0000000000000000000000000000000000000000000000000000000000000000
8005060 0000000000000000000000000000000000000000000000000000000000000000
8005080 0000000000000000000000000000000000000000000000000000000000000000
80050a0 0000000000000000000000000000000000000000000000000000000000000000
80050c0 0000000000000000000000000000000000000000000000000000000000000000
80050e0 0000000000000000000000000000000000000000000000000000000000000000
8005100 0000000000000000000000000000000000000000000000000000000000000000
8005120 0000000000000000000000000000000000000000000000000000000000000000
8005140 0000000000000000000000000000000000000000000000000000000000000000
8005160 0000000000000000000000000000000000000000000000000000000000000000
8005180 0000000000000000000000000000000000000000000000000000000000000000
80051a0 0000000000000000000000000000000000000000000000000000000000000000
80051c0 0000000000000000000000000000000000000000000000000000000000000000
80051e0 0000000000000000000000000000000000000000000000000000000000000000
8005200 0000000000000000000000000000000000000000000000000000000000000000
8005220 0000000000000000000000000000000000000000000000000000000000000000
8005240 0000000000000000000000000000000000000000000000000000000000000000
8005260 0000000000000000000000000000000000000000000000000000000000000000
8005280 0000000000000000000000000000000000000000000000000000000000000000
80052a0 0000000000000000000000000000000000000000000000000000000000000000
80052c0 0000000000000000000000000000000000000000000000000000000000000000
80052e0 0000000000000000000000000000000000000000000000000000000000000000
8005300 0000000000000000000000000000000000000000000000000000000000000000
8005320 0000000000000000000000000000000000000000000000000000000000000000
8005340 0000000000000000000000000000000000000000000000000000000000000000
8005360 0000000000000000000000000000000000000000000000000000000000000000
8005380 0000000000000000000000000000000000000000000000000000000000000000
80053a0 0000000000000000000000000000000000000000000000000000000000000000
80053c0 0000000000000000000000000000000000000000000000000000000000000000
80053e0 0000000000000000000000000000000000000000000000000000000000000000
8005400 0000000000000000000000000000000000000000000000000000000000000000
8005420 0000000000000000000000000000000000000000000000000000000000000000
8005440 0000000000000000000000000000000000000000000000000000000000000000
8005460 0000000000000000000000000000000000000000000000000000000000000000
8005480 0000000000000000000000000000000000000000000000000000000000000000
80054a0 0000000000000000000000000000000000000000000000000000000000000000
80054c0 0000000000000000000000000000000000000000000000000000000000000000
80054e0 0000000000000000000000000000000000000000000000000000000000000000
8005500 0000000000000000000000000000000000000000000000000000000000000000
8005520 0000000000000000000000000000000000000000000000000000000000000000
8005540 0000000000000000000000000000000000000000000000000000000000000000
8005560 0000000000000000000000000000000000000000000000000000000000000000
8005580 0000000000000000000000000000000000000000000000000000000000000000
80055a0 0000000000000000000000000000000000000000000000000000000000000000
80055c0 0000000000000000000000000000000000000000000000000000000000000000
80055e0 0000000000000000000000000000000000000000000000000000000000000000
8005600 0000000000000000000000000000000000000000000000000000000000000000
8005620 0000000000000000000000000000000000000000000000000000000000000000
8005640 0000000000000000000000000000000000000000000000000000000000000000
8005660 0000000000000000000000000000000000000000000000000000000000000000
8005680 0000000000000000000000000000000000000000000000000000000000000000
80056a0 0000000000000000000000000000000000000000000000000000000000000000
80056c0 0000000000000000000000000000000000000000000000000000000000000000
80056e0 0000000000000000000000000000000000000000000000000000000000000000
8005700 0000000000000000000000000000000000000000000000000000000000000000
8005720 0000000000000000000000000000000000000000000000000000000000000000
8005740 0000000000000000000000000000000000000000000000000000000000000000
8005760 0000000000000000000000000000000000000000000000000000000000000000
8005780 0000000000000000000000000000000000000000000000000000000000000000
80057a0 0000000000000000000000000000000000000000000000000000000000000000
80057c0 0000000000000000000000000000000000000000000000000000000000000000
80057e0 0000000000000000000000000000000000000000000000000000000000000000
8005800 0000000000000000000000000000000000000000000000000000000000000000
8005820 0000000000000000000000000000000000000000000000000000000000000000
8005840 0000000000000000000000000000000000000000000000000000000000000000
8005860 0000000000000000000000000000000000000000000000000000000000000000
8005880 0000000000000000000000000000000000000000000000000000000000000000
80058a0 0000000000000000000000000000000000000000000000000000000000000000
80058c0 0000000000000000000000000000000000000000000000000000000000000000
80058e0 0000000000000000000000000000000000000000000000000000000000000000
8005900 0000000000000000000000000000000000000000000000000000000000000000
8005920 0000000000000000000000000000000000000000000000000000000000000000
8005940 0000000000000000000000000000000000000000000000000000000000000000
8005960 0000000000000000000000000000000000000000000000000000000000000000
8005980 0000000000000000000000000000000000000000000000000000000000000000
80059a0 0000000000000000000000000000000000000000000000000000000000000000
80059c0 0000000000000000000000000000000000000000000000000000000000000000
80059e0 0000000000000000000000000000000000000000000000000000000000000000
8005a00 0000000000000000000000000000000000000000000000000000000000000000
8005a20 0000000000000000000000000000000000000000000000000000000000000000
8005a40 0000000000000000000000000000000000000000000000000000000000000000
8005a60 0000000000000000000000000000000000000000000000000000000000000000
8005a80 0000000000000000000000000000000000000000000000000000000000000000
8005aa0 0000000000000000000000000000000000000000000000000000000000000000
8005ac0 0000000000000000000000000000000000000000000000000000000000000000
8005ae0 0000000000000000000000000000000000000000000000000000000000000000
8005b00 0000000000000000000000000000000000000000000000000000000000000000
8005b20 0000000000000000000000000000000000000000000000000000000000000000
8005b40 0000000000000000000000000000000000000000000000000000000000000000
8005b60 0000000000000000000000000000000000000000000000000000000000000000
8005b80 0000000000000000000000000000000000000000000000000000000000000000
8005ba0 0000000000000000000000000000000000000000000000000000000000000000
8005bc0 0000000000000000000000000000000000000000000000000000000000000000
8005be0 0000000000000000000000000000000000000000000000000000000000000000
8005c00 0000000000000000000000000000000000000000000000000000000000000000
8005c20 0000000000000000000000000000000000000000000000000000000000000000
8005c40 0000000000000000000000000000000000000000000000000000000000000000
8005c60 0000000000000000000000000000000000000000000000000000000000000000
8005c80 0000000000000000000000000000000000000000000000000000000000000000
8005ca0 0000000000000000000000000000000000000000000000000000000000000000
8005cc0 0000000000000000000000000000000000000000000000000000000000000000
8005ce0 0000000000000000000000000000000000000000000000000000000000000000
8005d00 0000000000000000000000000000000000000000000000000000000000000000
8005d20 0000000000000000000000000000000000000000000000000000000000000000
8005d40 0000000000000000000000000000000000000000000000000000000000000000
8005d60 0000000000000000000000000000000000000000000000000000000000000000
8005d80 0000000000000000000000000000000000000000000000000000000000000000
8005da0 0000000000000000000000000000000000000000000000000000000000000000
8005dc0 0000000000000000000000000000000000000000000000000000000000000000
8005de0 0000000000000000000000000000000000000000000000000000000000000000
8005e00 0000000000000000000000000000000000000000000000000000000000000000
8005e20 0000000000000000000000000000000000000000000000000000000000000000
8005e40 0000000000000000000000000000000000000000000000000000000000000000
8005e60 0000000000000000000000000000000000000000000000000000000000000000
8005e80 0000000000000000000000000000000000000000000000000000000000000000
8005ea0 0000000000000000000000000000000000000000000000000000000000000000
8005ec0 0000000000000000000000000000000000000000000000000000000000000000
8005ee0 0000000000000000000000000000000000000000000000000000000000000000
8005f00 0000000000000000000000000000000000000000000000000000000000000000
8005f20 0000000000000000000000000000000000000000000000000000000000000000
8005f40 0000000000000000000000000000000000000000000000000000000000000000
8005f60 0000000000000000000000000000000000000000000000000000000000000000
8005f80 0000000000000000000000000000000000000000000000000000000000000000
8005fa0 0000000000000000000000000000000000000000000000000000000000000000
8005fc0 0000000000000000000000000000000000000000000000000000000000000000
8005fe0 0000000000000000000000000000000000000000000000000000000000000000
8006000 0000000000000000000000000000000000000000000000000000000000000000
8006020 0000000000000000000000000000000000000000000000000000000000000000
8006040 0000000000000000000000000000000000000000000000000000000000000000
8006060 0000000000000000000000000000000000000000000000000000000000000000
8006080 0000000000000000000000000000000000000000000000000000000000000000
80060a0 0000000000000000000000000000000000000000000000000000000000000000
80060c0 0000000000000000000000000000000000000000000000000000000000000000
80060e0 0000000000000000000000000000000000000000000000000000000000000000
8006100 0000000000000000000000000000000000000000000000000000000000000000
8006120 0000000000000000000000000000000000000000000000000000000000000000
8006140 0000000000000000000000000000000000000000000000000000000000000000
8006160 0000000000000000000000000000000000000000000000000000000000000000
8006180 0000000000000000000000000000000000000000000000000000000000000000
80061a0 0000000000000000000000000000000000000000000000000000000000000000
80061c0 0000000000000000000000000000000000000000000000000000000000000000
80061e0 0000000000000000000000000000000000000000000000000000000000000000
8006200 0000000000000000000000000000000000000000000000000000000000000000
8006220 0000000000000000000000000000000000000000000000000000000000000000
8006240 0000000000000000000000000000000000000000000000000000000000000000
8006260 0000000000000000000000000000000000000000000000000000000000000000
8006280 0000000000000000000000000000000000000000000000000000000000000000
80062a0 0000000000000000000000000000000000000000000000000000000000000000
80062c0 0000000000000000000000000000000000000000000000000000000000000000
80062e0 0000000000000000000000000000000000000000000000000000000000000000
8006300 0000000000000000000000000000000000000000000000000000000000000000
8006320 0000000000000000000000000000000000000000000000000000000000000000
8006340 0000000000000000000000000000000000000000000000000000000000000000
8006360 0000000000000000000000000000000000000000000000000000000000000000
8006380 0000000000000000000000000000000000000000000000000000000000000000
80063a0 0000000000000000000000000000000000000000000000000000000000000000
80063c0 0000000000000000000000000000000000000000000000000000000000000000
80063e0 0000000000000000000000000000000000000000000000000000000000000000
8006400 0000000000000000000000000000000000000000000000000000000000000000
8006420 0000000000000000000000000000000000000000000000000000000000000000
8006440 0000000000000000000000000000000000000000000000000000000000000000
8006460 0000000000000000000000000000000000000000000000000000000000000000
8006480 0000000000000000000000000000000000000000000000000000000000000000
80064a0 0000000000000000000000000000000000000000000000000000000000000000
80064c0 0000000000000000000000000000000000000000000000000000000000000000
80064e0 0000000000000000000000000000000000000000000000000000000000000000
8006500 0000000000000000000000000000000000000000000000000000000000000000
8006520 0000000000000000000000000000000000000000000000000000000000000000
8006540 0000000000000000000000000000000000000000000000000000000000000000
8006560 0000000000000000000000000000000000000000000000000000000000000000
8006580 0000000000000000000000000000000000000000000000000000000000000000
80065a0 0000000000000000000000000000000000000000000000000000000000000000
80065c0 0000000000000000000000000000000000000000000000000000000000000000
80065e0 0000000000000000000000000000000000000000000000000000000000000000
8006600 0000000000000000000000000000000000000000000000000000000000000000
8006620 0000000000000000000000000000000000000000000000000000000000000000
8006640 0000000000000000000000000000000000000000000000000000000000000000
8006660 0000000000000000000000000000000000000000000000000000000000000000
8006680 0000000000000000000000000000000000000000000000000000000000000000
80066a0 0000000000000000000000000000000000000000000000000000000000000000
80066c0 0000000000000000000000000000000000000000000000000000000000000000
80066e0 0000000000000000000000000000000000000000000000000000000000000000
8006700 0000000000000000000000000000000000000000000000000000000000000000
8006720 0000000000000000000000000000000000000000000000000000000000000000
8006740 0000000000000000000000000000000000000000000000000000000000000000
8006760 0000000000000000000000000000000000000000000000000000000000000000
8006780 0000000000000000000000000000000000000000000000000000000000000000
80067a0 0000000000000000000000000000000000000000000000000000000000000000
80067c0 0000000000000000000000000000000000000000000000000000000000000000
80067e0 0000000000000000000000000000000000000000000000000000000000000000
8006800 0000000000000000000000000000000000000000000000000000000000000000
8006820 0000000000000000000000000000000000000000000000000000000000000000
8006840 0000000000000000000000000000000000000000000000000000000000000000
8006860 0000000000000000000000000000000000000000000000000000000000000000
8006880 0000000000000000000000000000000000000000000000000000000000000000
80068a0 0000000000000000000000000000000000000000000000000000000000000000
80068c0 0000000000000000000000000000000000000000000000000000000000000000
80068e0 0000000000000000000000000000000000000000000000000000000000000000
8006900 0000000000000000000000000000000000000000000000000000000000000000
8006920 0000000000000000000000000000000000000000000000000000000000000000
8006940 0000000000000000000000000000000000000000000000000000000000000000
8006960 0000000000000000000000000000000000000000000000000000000000000000
8006980 0000000000000000000000000000000000000000000000000000000000000000
80069a0 0000000000000000000000000000000000000000000000000000000000000000
80069c0 0000000000000000000000000000000000000000000000000000000000000000
80069e0 0000000000000000000000000000000000000000000000000000000000000000
8006a00 0000000000000000000000000000000000000000000000000000000000000000
8006a20 0000000000000000000000000000000000000000000000000000000000000000
8006a40 0000000000000000000000000000000000000000000000000000000000000000
8006a60 0000000000000000000000000000000000000000000000000000000000000000
8006a80 0000000000000000000000000000000000000000000000000000000000000000
8006aa0 0000000000000000000000000000000000000000000000000000000000000000
8006ac0 0000000000000000000000000000000000000000000000000000000000000000
8006ae0 0000000000000000000000000000000000000000000000000000000000000000
8006b00 0000000000000000000000000000000000000000000000000000000000000000
8006b20 0000000000000000000000000000000000000000000000000000000000000000
8006b40 0000000000000000000000000000000000000000000000000000000000000000
8006b60 0000000000000000000000000000000000000000000000000000000000000000
8006b80 0000000000000000000000000000000000000000000000000000000000000000
8006ba0 0000000000000000000000000000000000000000000000000000000000000000
8006bc0 0000000000000000000000000000000000000000000000000000000000000000
8006be0 0000000000000000000000000000000000000000000000000000000000000000
8006c00 0000000000000000000000000000000000000000000000000000000000000000
8006c20 0000000000000000000000000000000000000000000000000000000000000000
8006c40 0000000000000000000000000000000000000000000000000000000000000000
8006c60 0000000000000000000000000000000000000000000000000000000000000000
8006c80 0000000000000000000000000000000000000000000000000000000000000000
8006ca0 0000000000000000000000000000000000000000000000000000000000000000
8006cc0 0000000000000000000000000000000000000000000000000000000000000000
8006ce0 0000000000000000000000000000000000000000000000000000000000000000
8006d00 0000000000000000000000000000000000000000000000000000000000000000
8006d20 0000000000000000000000000000000000000000000000000000000000000000
8006d40 0000000000000000000000000000000000000000000000000000000000000000
8006d60 0000000000000000000000000000000000000000000000000000000000000000
8006d80 0000000000000000000000000000000000000000000000000000000000000000
8006da0 0000000000000000000000000000000000000000000000000000000000000000
8006dc0 0000000000000000000000000000000000000000000000000000000000000000
8006de0 0000000000000000000000000000000000000000000000000000000000000000
8006e00 0000000000000000000000000000000000000000000000000000000000000000
8006e20 0000000000000000000000000000000000000000000000000000000000000000
8006e40 0000000000000000000000000000000000000000000000000000000000000000
8006e60 0000000000000000000000000000000000000000000000000000000000000000
8006e80 0000000000000000000000000000000000000000000000000000000000000000
8006ea0 0000000000000000000000000000000000000000000000000000000000000000
8006ec0 0000000000000000000000000000000000000000000000000000000000000000
8006ee0 0000000000000000000000000000000000000000000000000000000000000000
8006f00 0000000000000000000000000000000000000000000000000000000000000000
8006f20 0000000000000000000000000000000000000000000000000000000000000000
8006f40 0000000000000000000000000000000000000000000000000000000000000000
8006f60 0000000000000000000000000000000000000000000000000000000000000000
8006f80 0000000000000000000000000000000000000000000000000000000000000000
8006fa0 0000000000000000000000000000000000000000000000000000000000000000
8006fc0 0000000000000000000000000000000000000000000000000000000000000000
8006fe0 0000000000000000000000000000000000000000000000000000000000000000
8007000 0000000000000000000000000000000000000000000000000000000000000000
8007020 0000000000000000000000000000000000000000000000000000000000000000
8007040 0000000000000000000000000000000000000000000000000000000000000000
8007060 0000000000000000000000000000000000000000000000000000000000000000
8007080 0000000000000000000000000000000000000000000000000000000000000000
80070a0 0000000000000000000000000000000000000000000000000000000000000000
80070c0 0000000000000000000000000000000000000000000000000000000000000000
80070e0 0000000000000000000000000000000000000000000000000000000000000000
8007100 0000000000000000000000000000000000000000000000000000000000000000
8007120 0000000000000000000000000000000000000000000000000000000000000000
8007140 0000000000000000000000000000000000000000000000000000000000000000
8007160 0000000000000000000000000000000000000000000000000000000000000000
8007180 0000000000000000000000000000000000000000000000000000000000000000
80071a0 0000000000000000000000000000000000000000000000000000000000000000
80071c0 0000000000000000000000000000000000000000000000000000000000000000
80071e0 0000000000000000000000000000000000000000000000000000000000000000
8007200 0000000000000000000000000000000000000000000000000000000000000000
8007220 0000000000000000000000000000000000000000000000000000000000000000
8007240 0000000000000000000000000000000000000000000000000000000000000000
8007260 0000000000000000000000000000000000000000000000000000000000000000
8007280 0000000000000000000000000000000000000000000000000000000000000000
80072a0 0000000000000000000000000000000000000000000000000000000000000000
80072c0 0000000000000000000000000000000000000000000000000000000000000000
80072e0 0000000000000000000000000000000000000000000000000000000000000000
8007300 0000000000000000000000000000000000000000000000000000000000000000
8007320 0000000000000000000000000000000000000000000000000000000000000000
8007340 0000000000000000000000000000000000000000000000000000000000000000
8007360 0000000000000000000000000000000000000000000000000000000000000000
8007380 0000000000000000000000000000000000000000000000000000000000000000
80073a0 0000000000000000000000000000000000000000000000000000000000000000
80073c0 0000000000000000000000000000000000000000000000000000000000000000
80073e0 0000000000000000000000000000000000000000000000000000000000000000
8007400 0000000000000000000000000000000000000000000000000000000000000000
8007420 0000000000000000000000000000000000000000000000000000000000000000
8007440 0000000000000000000000000000000000000000000000000000000000000000
8007460 0000000000000000000000000000000000000000000000000000000000000000
8007480 0000000000000000000000000000000000000000000000000000000000000000
80074a0 0000000000000000000000000000000000000000000000000000000000000000
80074c0 0000000000000000000000000000000000000000000000000000000000000000
80074e0 0000000000000000000000000000000000000000000000000000000000000000
8007500 0000000000000000000000000000000000000000000000000000000000000000
8007520 0000000000000000000000000000000000000000000000000000000000000000
8007540 0000000000000000000000000000000000000000000000000000000000000000
8007560 0000000000000000000000000000000000000000000000000000000000000000
8007580 0000000000000000000000000000000000000000000000000000000000000000
80075a0 0000000000000000000000000000000000000000000000000000000000000000
80075c0 0000000000000000000000000000000000000000000000000000000000000000
80075e0 0000000000000000000000000000000000000000000000000000000000000000
8007600 0000000000000000000000000000000000000000000000000000000000000000
8007620 0000000000000000000000000000000000000000000000000000000000000000
8007640 0000000000000000000000000000000000000000000000000000000000000000
8007660 0000000000000000000000000000000000000000000000000000000000000000
8007680 0000000000000000000000000000000000000000000000000000000000000000
80076a0 0000000000000000000000000000000000000000000000000000000000000000
80076c0 0000000000000000000000000000000000000000000000000000000000000000
80076e0 0000000000000000000000000000000000000000000000000000000000000000
8007700 0000000000000000000000000000000000000000000000000000000000000000
8007720 0000000000000000000000000000000000000000000000000000000000000000
8007740 0000000000000000000000000000000000000000000000000000000000000000
8007760 0000000000000000000000000000000000000000000000000000000000000000
8007780 0000000000000000000000000000000000000000000000000000000000000000
80077a0 0000000000000000000000000000000000000000000000000000000000000000
80077c0 0000000000000000000000000000000000000000000000000000000000000000
80077e0 0000000000000000000000000000000000000000000000000000000000000000
8007800 0000000000000000000000000000000000000000000000000000000000000000
8007820 0000000000000000000000000000000000000000000000000000000000000000
8007840 0000000000000000000000000000000000000000000000000000000000000000
8007860 0000000000000000000000000000000000000000000000000000000000000000
8007880 0000000000000000000000000000000000000000000000000000000000000000
80078a0 0000000000000000000000000000000000000000000000000000000000000000
80078c0 0000000000000000000000000000000000000000000000000000000000000000
80078e0 0000000000000000000000000000000000000000000000000000000000000000
8007900 0000000000000000000000000000000000000000000000000000000000000000
8007920 0000000000000000000000000000000000000000000000000000000000000000
8007940 0000000000000000000000000000000000000000000000000000000000000000
8007960 0000000000000000000000000000000000000000000000000000000000000000
8007980 0000000000000000000000000000000000000000000000000000000000000000
80079a0 0000000000000000000000000000000000000000000000000000000000000000
80079c0 0000000000000000000000000000000000000000000000000000000000000000
80079e0 0000000000000000000000000000000000000000000000000000000000000000
8007a00 0000000000000000000000000000000000000000000000000000000000000000
8007a20 0000000000000000000000000000000000000000000000000000000000000000
8007a40 0000000000000000000000000000000000000000000000000000000000000000
8007a60 0000000000000000000000000000000000000000000000000000000000000000
8007a80 0000000000000000000000000000000000000000000000000000000000000000
8007aa0 0000000000000000000000000000000000000000000000000000000000000000
8007ac0 0000000000000000000000000000000000000000000000000000000000000000
8007ae0 0000000000000000000000000000000000000000000000000000000000000000
8007b00 0000000000000000000000000000000000000000000000000000000000000000
8007b20 0000000000000000000000000000000000000000000000000000000000000000
8007b40 0000000000000000000000000000000000000000000000000000000000000000
8007b60 0000000000000000000000000000000000000000000000000000000000000000
8007b80 0000000000000000000000000000000000000000000000000000000000000000
8007ba0 0000000000000000000000000000000000000000000000000000000000000000
8007bc0 0000000000000000000000000000000000000000000000000000000000000000
8007be0 0000000000000000000000000000000000000000000000000000000000000000
8007c00 0000000000000000000000000000000000000000000000000000000000000000
8007c20 0000000000000000000000000000000000000000000000000000000000000000
8007c40 0000000000000000000000000000000000000000000000000000000000000000
8007c60 0000000000000000000000000000000000000000000000000000000000000000
8007c80 0000000000000000000000000000000000000000000000000000000000000000
8007ca0 0000000000000000000000000000000000000000000000000000000000000000
8007cc0 0000000000000000000000000000000000000000000000000000000000000000
8007ce0 0000000000000000000000000000000000000000000000000000000000000000
8007d00 0000000000000000000000000000000000000000000000000000000000000000
8007d20 0000000000000000000000000000000000000000000000000000000000000000
8007d40 0000000000000000000000000000000000000000000000000000000000000000
8007d60 0000000000000000000000000000000000000000000000000000000000000000
8007d80 0000000000000000000000000000000000000000000000000000000000000000
8007da0 0000000000000000000000000000000000000000000000000000000000000000
8007dc0 0000000000000000000000000000000000000000000000000000000000000000
8007de0 0000000000000000000000000000000000000000000000000000000000000000
8007e00 0000000000000000000000000000000000000000000000000000000000000000
8007e20 0000000000000000000000000000000000000000000000000000000000000000
8007e40 0000000000000000000000000000000000000000000000000000000000000000
8007e60 0000000000000000000000000000000000000000000000000000000000000000
8007e80 0000000000000000000000000000000000000000000000000000000000000000
8007ea0 0000000000000000000000000000000000000000000000000000000000000000
8007ec0 0000000000000000000000000000000000000000000000000000000000000000
8007ee0 0000000000000000000000000000000000000000000000000000000000000000
8007f00 0000000000000000000000000000000000000000000000000000000000000000
8007f20 0000000000000000000000000000000000000000000000000000000000000000
8007f40 0000000000000000000000000000000000000000000000000000000000000000
8007f60 0000000000000000000000000000000000000000000000000000000000000000
8007f80 0000000000000000000000000000000000000000000000000000000000000000
8007fa0 0000000000000000000000000000000000000000000000000000000000000000
8007fc0 0000000000000000000000000000000000000000000000000000000000000000
8007fe0 0000000000000000000000000000000000000000000000000000000000000000
8008000 0000000000000000000000000000000000000000000000000000000000000000
8008020 0000000000000000000000000000000000000000000000000000000000000000
8008040 0000000000000000000000000000000000000000000000000000000000000000
8008060 0000000000000000000000000000000000000000000000000000000000000000
8008080 0000000000000000000000000000000000000000000000000000000000000000
80080a0 0000000000000000000000000000000000000000000000000000000000000000
80080c0 0000000000000000000000000000000000000000000000000000000000000000
80080e0 0000000000000000000000000000000000000000000000000000000000000000
8008100 0000000000000000000000000000000000000000000000000000000000000000
8008120 0000000000000000000000000000000000000000000000000000000000000000
8008140 0000000000000000000000000000000000000000000000000000000000000000
8008160 0000000000000000000000000000000000000000000000000000000000000000
8008180 0000000000000000000000000000000000000000000000000000000000000000
80081a0 0000000000000000000000000000000000000000000000000000000000000000
80081c0 0000000000000000000000000000000000000000000000000000000000000000
80081e0 0000000000000000000000000000000000000000000000000000000000000000
8008200 0000000000000000000000000000000000000000000000000000000000000000
8008220 0000000000000000000000000000000000000000000000000000000000000000
8008240 0000000000000000000000000000000000000000000000000000000000000000
8008260 0000000000000000000000000000000000000000000000000000000000000000
8008280 0000000000000000000000000000000000000000000000000000000000000000
80082a0 0000000000000000000000000000000000000000000000000000000000000000
80082c0 0000000000000000000000000000000000000000000000000000000000000000
80082e0 0000000000000000000000000000000000000000000000000000000000000000
8008300 0000000000000000000000000000000000000000000000000000000000000000
8008320 0000000000000000000000000000000000000000000000000000000000000000
8008340 0000000000000000000000000000000000000000000000000000000000000000
8008360 0000000000000000000000000000000000000000000000000000000000000000
8008380 0000000000000000000000000000000000000000000000000000000000000000
80083a0 0000000000000000000000000000000000000000000000000000000000000000
80083c0 0000000000000000000000000000000000000000000000000000000000000000
80083e0 0000000000000000000000000000000000000000000000000000000000000000
8008400 0000000000000000000000000000000000000000000000000000000000000000
8008420 0000000000000000000000000000000000000000000000000000000000000000
8008440 0000000000000000000000000000000000000000000000000000000000000000
8008460 0000000000000000000000000000000000000000000000000000000000000000
8008480 0000000000000000000000000000000000000000000000000000000000000000
80084a0 0000000000000000000000000000000000000000000000000000000000000000
80084c0 0000000000000000000000000000000000000000000000000000000000000000
80084e0 0000000000000000000000000000000000000000000000000000000000000000
8008500 0000000000000000000000000000000000000000000000000000000000000000
8008520 0000000000000000000000000000000000000000000000000000000000000000
8008540 0000000000000000000000000000000000000000000000000000000000000000
8008560 0000000000000000000000000000000000000000000000000000000000000000
8008580 0000000000000000000000000000000000000000000000000000000000000000
80085a0 0000000000000000000000000000000000000000000000000000000000000000
80085c0 0000000000000000000000000000000000000000000000000000000000000000
80085e0 0000000000000000000000000000000000000000000000000000000000000000
8008600 0000000000000000000000000000000000000000000000000000000000000000
8008620 0000000000000000000000000000000000000000000000000000000000000000
8008640 0000000000000000000000000000000000000000000000000000000000000000
8008660 0000000000000000000000000000000000000000000000000000000000000000
8008680 0000000000000000000000000000000000000000000000000000000000000000
80086a0 0000000000000000000000000000000000000000000000000000000000000000
80086c0 0000000000000000000000000000000000000000000000000000000000000000
80086e0 0000000000000000000000000000000000000000000000000000000000000000
8008700 0000000000000000000000000000000000000000000000000000000000000000
8008720 0000000000000000000000000000000000000000000000000000000000000000
8008740 0000000000000000000000000000000000000000000000000000000000000000
8008760 0000000000000000000000000000000000000000000000000000000000000000
8008780 0000000000000000000000000000000000000000000000000000000000000000
80087a0 0000000000000000000000000000000000000000000000000000000000000000
80087c0 0000000000000000000000000000000000000000000000000000000000000000
80087e0 0000000000000000000000000000000000000000000000000000000000000000
8008800 0000000000000000000000000000000000000000000000000000000000000000
8008820 0000000000000000000000000000000000000000000000000000000000000000
8008840 0000000000000000000000000000000000000000000000000000000000000000
8008860 0000000000000000000000000000000000000000000000000000000000000000
8008880 0000000000000000000000000000000000000000000000000000000000000000
80088a0 0000000000000000000000000000000000000000000000000000000000000000
80088c0 0000000000000000000000000000000000000000000000000000000000000000
80088e0 0000000000000000000000000000000000000000000000000000000000000000
8008900 0000000000000000000000000000000000000000000000000000000000000000
8008920 0000000000000000000000000000000000000000000000000000000000000000
8008940 0000000000000000000000000000000000000000000000000000000000000000
8008960 0000000000000000000000000000000000000000000000000000000000000000
8008980 0000000000000000000000000000000000000000000000000000000000000000
80089a0 0000000000000000000000000000000000000000000000000000000000000000
80089c0 0000000000000000000000000000000000000000000000000000000000000000
80089e0 0000000000000000000000000000000000000000000000000000000000000000
8008a00 0000000000000000000000000000000000000000000000000000000000000000
8008a20 0000000000000000000000000000000000000000000000000000000000000000
8008a40 0000000000000000000000000000000000000000000000000000000000000000
8008a60 0000000000000000000000000000000000000000000000000000000000000000
8008a80 0000000000000000000000000000000000000000000000000000000000000000
8008aa0 0000000000000000000000000000000000000000000000000000000000000000
8008ac0 0000000000000000000000000000000000000000000000000000000000000000
8008ae0 0000000000000000000000000000000000000000000000000000000000000000
8008b00 0000000000000000000000000000000000000000000000000000000000000000
8008b20 0000000000000000000000000000000000000000000000000000000000000000
8008b40 0000000000000000000000000000000000000000000000000000000000000000
8008b60 0000000000000000000000000000000000000000000000000000000000000000
8008b80 0000000000000000000000000000000000000000000000000000000000000000
8008ba0 0000000000000000000000000000000000000000000000000000000000000000
8008bc0 0000000000000000000000000000000000000000000000000000000000000000
8008be0 0000000000000000000000000000000000000000000000000000000000000000
8008c00 0000000000000000000000000000000000000000000000000000000000000000
8008c20 0000000000000000000000000000000000000000000000000000000000000000
8008c40 0000000000000000000000000000000000000000000000000000000000000000
8008c60 0000000000000000000000000000000000000000000000000000000000000000
8008c80 0000000000000000000000000000000000000000000000000000000000000000
8008ca0 0000000000000000000000000000000000000000000000000000000000000000
8008cc0 0000000000000000000000000000000000000000000000000000000000000000
8008ce0 0000000000000000000000000000000000000000000000000000000000000000
8008d00 0000000000000000000000000000000000000000000000000000000000000000
8008d20 0000000000000000000000000000000000000000000000000000000000000000
8008d40 0000000000000000000000000000000000000000000000000000000000000000
8008d60 0000000000000000000000000000000000000000000000000000000000000000
8008d80 0000000000000000000000000000000000000000000000000000000000000000
8008da0 0000000000000000000000000000000000000000000000000000000000000000
8008dc0 0000000000000000000000000000000000000000000000000000000000000000
8008de0 0000000000000000000000000000000000000000000000000000000000000000
8008e00 0000000000000000000000000000000000000000000000000000000000000000
8008e20 0000000000000000000000000000000000000000000000000000000000000000
8008e40 0000000000000000000000000000000000000000000000000000000000000000
8008e60 0000000000000000000000000000000000000000000000000000000000000000
8008e80 0000000000000000000000000000000000000000000000000000000000000000
8008ea0 0000000000000000000000000000000000000000000000000000000000000000
8008ec0 0000000000000000000000000000000000000000000000000000000000000000
8008ee0 0000000000000000000000000000000000000000000000000000000000000000
8008f00 0000000000000000000000000000000000000000000000000000000000000000
8008f20 0000000000000000000000000000000000000000000000000000000000000000
8008f40 0000000000000000000000000000000000000000000000000000000000000000
8008f60 0000000000000000000000000000000000000000000000000000000000000000
8008f80 0000000000000000000000000000000000000000000000000000000000000000
8008fa0 0000000000000000000000000000000000000000000000000000000000000000
8008fc0 0000000000000000000000000000000000000000000000000000000000000000
8008fe0 0000000000000000000000000000000000000000000000000000000000000000
bakup memory
Data memory
10000000 FFFFFFFFFFFFFFFFFFFFFFFFFFFFFFFFFFFFFFFFFFFFFFFFFFFFFFFFFFFFFFFF
10000020 FFFFFFFFFFFFFFFFFFFFFFFFFFFFFFFFFFFFFFFFFFFFFFFFFFFFFFFFFFFFFFFF
10000040 FFFFFFFFFFFFFFFFFFFFFFFFFFFFFFFFFFFFFFFFFFFFFFFFFFFFFFFFFFFFFFFF
10000060 FFFFFFFFFFFFFFFFFFFFFFFFFFFFFFFFFFFFFFFFFFFFFFFFFFFFFFFFFFFFFFFF
10000080 FFFFFFFFFFFFFFFFFFFFFFFFFFFFFFFFFFFFFFFFFFFFFFFFFFFFFFFFFFFFFFFF
100000a0 FFFFFFFFFFFFFFFFFFFFFFFFFFFFFFFFFFFFFFFFFFFFFFFFFFFFFFFFFFFFFFFF
100000c0 FFFFFFFFFFFFFFFFFFFFFFFFFFFFFFFFFFFFFFFFFFFFFFFFFFFFFFFFFFFFFFFF
100000e0 FFFFFFFFFFFFFFFFFFFFFFFFFFFFFFFFFFFFFFFFFFFFFFFFFFFFFFFFFFFFFFFF
10000100 FFFFFFFFFFFFFFFFFFFFFFFFFFFFFFFFFFFFFFFFFFFFFFFFFFFFFFFFFFFFFFFF
10000120 FFFFFFFFFFFFFFFFFFFFFFFFFFFFFFFFFFFFFFFFFFFFFFFFFFFFFFFFFFFFFFFF
10000140 FFFFFFFFFFFFFFFFFFFFFFFFFFFFFFFFFFFFFFFFFFFFFFFFFFFFFFFFFFFFFFFF
10000160 FFFFFFFFFFFFFFFFFFFFFFFFFFFFFFFFFFFFFFFFFFFFFFFFFFFFFFFFFFFFFFFF
10000180 FFFFFFFFFFFFFFFFFFFFFFFFFFFFFFFFFFFFFFFFFFFFFFFFFFFFFFFFFFFFFFFF
100001a0 FFFFFFFFFFFFFFFFFFFFFFFFFFFFFFFFFFFFFFFFFFFFFFFFFFFFFFFFFFFFFFFF
100001c0 FFFFFFFFFFFFFFFFFFFFFFFFFFFFFFFFFFFFFFFFFFFFFFFFFFFFFFFFFFFFFFFF
100001e0 FFFFFFFFFFFFFFFFFFFFFFFFFFFFFFFFFFFFFFFFFFFFFFFFFFFFFFFFFFFFFFFF
10000200 FFFFFFFFFFFFFFFFFFFFFFFFFFFFFFFFFFFFFFFFFFFFFFFFFFFFFFFFFFFFFFFF
10000220 FFFFFFFFFFFFFFFFFFFFFFFFFFFFFFFFFFFFFFFFFFFFFFFFFFFFFFFFFFFFFFFF
10000240 FFFFFFFFFFFFFFFFFFFFFFFFFFFFFFFFFFFFFFFFFFFFFFFFFFFFFFFFFFFFFFFF
10000260 FFFFFFFFFFFFFFFFFFFFFFFFFFFFFFFFFFFFFFFFFFFFFFFFFFFFFFFFFFFFFFFF
10000280 FFFFFFFFFFFFFFFFFFFFFFFFFFFFFFFFFFFFFFFFFFFFFFFFFFFFFFFFFFFFFFFF
100002a0 FFFFFFFFFFFFFFFFFFFFFFFFFFFFFFFFFFFFFFFFFFFFFFFFFFFFFFFFFFFFFFFF
100002c0 FFFFFFFFFFFFFFFFFFFFFFFFFFFFFFFFFFFFFFFFFFFFFFFFFFFFFFFFFFFFFFFF
100002e0 FFFFFFFFFFFFFFFFFFFFFFFFFFFFFFFFFFFFFFFFFFFFFFFFFFFFFFFFFFFFFFFF
10000300 FFFFFFFFFFFFFFFFFFFFFFFFFFFFFFFFFFFFFFFFFFFFFFFFFFFFFFFFFFFFFFFF
10000320 FFFFFFFFFFFFFFFFFFFFFFFFFFFFFFFFFFFFFFFFFFFFFFFFFFFFFFFFFFFFFFFF
10000340 FFFFFFFFFFFFFFFFFFFFFFFFFFFFFFFFFFFFFFFFFFFFFFFFFFFFFFFFFFFFFFFF
10000360 FFFFFFFFFFFFFFFFFFFFFFFFFFFFFFFFFFFFFFFFFFFFFFFFFFFFFFFFFFFFFFFF
10000380 FFFFFFFFFFFFFFFFFFFFFFFFFFFFFFFFFFFFFFFFFFFFFFFFFFFFFFFFFFFFFFFF
100003a0 FFFFFFFFFFFFFFFFFFFFFFFFFFFFFFFFFFFFFFFFFFFFFFFFFFFFFFFFFFFFFFFF
100003c0 FFFFFFFFFFFFFFFFFFFFFFFFFFFFFFFFFFFFFFFFFFFFFFFFFFFFFFFFFFFFFFFF
100003e0 FFFFFFFFFFFFFFFFFFFFFFFFFFFFFFFFFFFFFFFFFFFFFFFFFFFFFFFFFFFFFFFF
10000400 FFFFFFFFFFFFFFFFFFFFFFFFFFFFFFFFFFFFFFFFFFFFFFFFFFFFFFFFFFFFFFFF
10000420 FFFFFFFFFFFFFFFFFFFFFFFFFFFFFFFFFFFFFFFFFFFFFFFFFFFFFFFFFFFFFFFF
10000440 FFFFFFFFFFFFFFFFFFFFFFFFFFFFFFFFFFFFFFFFFFFFFFFFFFFFFFFFFFFFFFFF
10000460 FFFFFFFFFFFFFFFFFFFFFFFFFFFFFFFFFFFFFFFFFFFFFFFFFFFFFFFFFFFFFFFF
10000480 FFFFFFFFFFFFFFFFFFFFFFFFFFFFFFFFFFFFFFFFFFFFFFFFFFFFFFFFFFFFFFFF
100004a0 FFFFFFFFFFFFFFFFFFFFFFFFFFFFFFFFFFFFFFFFFFFFFFFFFFFFFFFFFFFFFFFF
100004c0 FFFFFFFFFFFFFFFFFFFFFFFFFFFFFFFFFFFFFFFFFFFFFFFFFFFFFFFFFFFFFFFF
100004e0 FFFFFFFFFFFFFFFFFFFFFFFFFFFFFFFFFFFFFFFFFFFFFFFFFFFFFFFFFFFFFFFF
10000500 FFFFFFFFFFFFFFFFFFFFFFFFFFFFFFFFFFFFFFFFFFFFFFFFFFFFFFFFFFFFFFFF
10000520 FFFFFFFFFFFFFFFFFFFFFFFFFFFFFFFFFFFFFFFFFFFFFFFFFFFFFFFFFFFFFFFF
10000540 FFFFFFFFFFFFFFFFFFFFFFFFFFFFFFFFFFFFFFFFFFFFFFFFFFFFFFFFFFFFFFFF
10000560 FFFFFFFFFFFFFFFFFFFFFFFFFFFFFFFFFFFFFFFFFFFFFFFFFFFFFFFFFFFFFFFF
10000580 FFFFFFFFFFFFFFFFFFFFFFFFFFFFFFFFFFFFFFFFFFFFFFFFFFFFFFFFFFFFFFFF
100005a0 FFFFFFFFFFFFFFFFFFFFFFFFFFFFFFFFFFFFFFFFFFFFFFFFFFFFFFFFFFFFFFFF
100005c0 FFFFFFFFFFFFFFFFFFFFFFFFFFFFFFFFFFFFFFFFFFFFFFFFFFFFFFFFFFFFFFFF
100005e0 FFFFFFFFFFFFFFFFFFFFFFFFFFFFFFFFFFFFFFFFFFFFFFFFFFFFFFFFFFFFFFFF
10000600 FFFFFFFFFFFFFFFFFFFFFFFFFFFFFFFFFFFFFFFFFFFFFFFFFFFFFFFFFFFFFFFF
10000620 FFFFFFFFFFFFFFFFFFFFFFFFFFFFFFFFFFFFFFFFFFFFFFFFFFFFFFFFFFFFFFFF
10000640 FFFFFFFFFFFFFFFFFFFFFFFFFFFFFFFFFFFFFFFFFFFFFFFFFFFFFFFFFFFFFFFF
10000660 FFFFFFFFFFFFFFFFFFFFFFFFFFFFFFFFFFFFFFFFFFFFFFFFFFFFFFFFFFFFFFFF
10000680 FFFFFFFFFFFFFFFFFFFFFFFFFFFFFFFFFFFFFFFFFFFFFFFFFFFFFFFFFFFFFFFF
100006a0 FFFFFFFFFFFFFFFFFFFFFFFFFFFFFFFFFFFFFFFFFFFFFFFFFFFFFFFFFFFFFFFF
100006c0 FFFFFFFFFFFFFFFFFFFFFFFFFFFFFFFFFFFFFFFFFFFFFFFFFFFFFFFFFFFFFFFF
100006e0 FFFFFFFFFFFFFFFFFFFFFFFFFFFFFFFFFFFFFFFFFFFFFFFFFFFFFFFFFFFFFFFF
10000700 FFFFFFFFFFFFFFFFFFFFFFFFFFFFFFFFFFFFFFFFFFFFFFFFFFFFFFFFFFFFFFFF
10000720 FFFFFFFFFFFFFFFFFFFFFFFFFFFFFFFFFFFFFFFFFFFFFFFFFFFFFFFFFFFFFFFF
10000740 FFFFFFFFFFFFFFFFFFFFFFFFFFFFFFFFFFFFFFFFFFFFFFFFFFFFFFFFFFFFFFFF
10000760 FFFFFFFFFFFFFFFFFFFFFFFFFFFFFFFFFFFFFFFFFFFFFFFFFFFFFFFFFFFFFFFF
10000780 FFFFFFFFFFFFFFFFFFFFFFFFFFFFFFFFFFFFFFFFFFFFFFFFFFFFFFFFFFFFFFFF
100007a0 FFFFFFFFFFFFFFFFFFFFFFFFFFFFFFFFFFFFFFFFFFFFFFFFFFFFFFFFFFFFFFFF
100007c0 FFFFFFFFFFFFFFFFFFFFFFFFFFFFFFFFFFFFFFFFFFFFFFFFFFFFFFFFFFFFFFFF
100007e0 FFFFFFFFFFFFFFFFFFFFFFFFFFFFFFFFFFFFFFFFFFFFFFFFFFFFFFFFFFFFFFFF
10000800 FFFFFFFFFFFFFFFFFFFFFFFFFFFFFFFFFFFFFFFFFFFFFFFFFFFFFFFFFFFFFFFF
10000820 FFFFFFFFFFFFFFFFFFFFFFFFFFFFFFFFFFFFFFFFFFFFFFFFFFFFFFFFFFFFFFFF
10000840 FFFFFFFFFFFFFFFFFFFFFFFFFFFFFFFFFFFFFFFFFFFFFFFFFFFFFFFFFFFFFFFF
10000860 FFFFFFFFFFFFFFFFFFFFFFFFFFFFFFFFFFFFFFFFFFFFFFFFFFFFFFFFFFFFFFFF
10000880 FFFFFFFFFFFFFFFFFFFFFFFFFFFFFFFFFFFFFFFFFFFFFFFFFFFFFFFFFFFFFFFF
100008a0 FFFFFFFFFFFFFFFFFFFFFFFFFFFFFFFFFFFFFFFFFFFFFFFFFFFFFFFFFFFFFFFF
100008c0 FFFFFFFFFFFFFFFFFFFFFFFFFFFFFFFFFFFFFFFFFFFFFFFFFFFFFFFFFFFFFFFF
100008e0 FFFFFFFFFFFFFFFFFFFFFFFFFFFFFFFFFFFFFFFFFFFFFFFFFFFFFFFFFFFFFFFF
10000900 FFFFFFFFFFFFFFFFFFFFFFFFFFFFFFFFFFFFFFFFFFFFFFFFFFFFFFFFFFFFFFFF
10000920 FFFFFFFFFFFFFFFFFFFFFFFFFFFFFFFFFFFFFFFFFFFFFFFFFFFFFFFFFFFFFFFF
10000940 FFFFFFFFFFFFFFFFFFFFFFFFFFFFFFFFFFFFFFFFFFFFFFFFFFFFFFFFFFFFFFFF
10000960 FFFFFFFFFFFFFFFFFFFFFFFFFFFFFFFFFFFFFFFFFFFFFFFFFFFFFFFFFFFFFFFF
10000980 FFFFFFFFFFFFFFFFFFFFFFFFFFFFFFFFFFFFFFFFFFFFFFFFFFFFFFFFFFFFFFFF
100009a0 FFFFFFFFFFFFFFFFFFFFFFFFFFFFFFFFFFFFFFFFFFFFFFFFFFFFFFFFFFFFFFFF
100009c0 FFFFFFFFFFFFFFFFFFFFFFFFFFFFFFFFFFFFFFFFFFFFFFFFFFFFFFFFFFFFFFFF
100009e0 FFFFFFFFFFFFFFFFFFFFFFFFFFFFFFFFFFFFFFFFFFFFFFFFFFFFFFFFFFFFFFFF
10000a00 FFFFFFFFFFFFFFFFFFFFFFFFFFFFFFFFFFFFFFFFFFFFFFFFFFFFFFFFFFFFFFFF
10000a20 FFFFFFFFFFFFFFFFFFFFFFFFFFFFFFFFFFFFFFFFFFFFFFFFFFFFFFFFFFFFFFFF
10000a40 FFFFFFFFFFFFFFFFFFFFFFFFFFFFFFFFFFFFFFFFFFFFFFFFFFFFFFFFFFFFFFFF
10000a60 FFFFFFFFFFFFFFFFFFFFFFFFFFFFFFFFFFFFFFFFFFFFFFFFFFFFFFFFFFFFFFFF
10000a80 FFFFFFFFFFFFFFFFFFFFFFFFFFFFFFFFFFFFFFFFFFFFFFFFFFFFFFFFFFFFFFFF
10000aa0 FFFFFFFFFFFFFFFFFFFFFFFFFFFFFFFFFFFFFFFFFFFFFFFFFFFFFFFFFFFFFFFF
10000ac0 FFFFFFFFFFFFFFFFFFFFFFFFFFFFFFFFFFFFFFFFFFFFFFFFFFFFFFFFFFFFFFFF
10000ae0 FFFFFFFFFFFFFFFFFFFFFFFFFFFFFFFFFFFFFFFFFFFFFFFFFFFFFFFFFFFFFFFF
10000b00 FFFFFFFFFFFFFFFFFFFFFFFFFFFFFFFFFFFFFFFFFFFFFFFFFFFFFFFFFFFFFFFF
10000b20 FFFFFFFFFFFFFFFFFFFFFFFFFFFFFFFFFFFFFFFFFFFFFFFFFFFFFFFFFFFFFFFF
10000b40 FFFFFFFFFFFFFFFFFFFFFFFFFFFFFFFFFFFFFFFFFFFFFFFFFFFFFFFFFFFFFFFF
10000b60 FFFFFFFFFFFFFFFFFFFFFFFFFFFFFFFFFFFFFFFFFFFFFFFFFFFFFFFFFFFFFFFF
10000b80 FFFFFFFFFFFFFFFFFFFFFFFFFFFFFFFFFFFFFFFFFFFFFFFFFFFFFFFFFFFFFFFF
10000ba0 FFFFFFFFFFFFFFFFFFFFFFFFFFFFFFFFFFFFFFFFFFFFFFFFFFFFFFFFFFFFFFFF
10000bc0 FFFFFFFFFFFFFFFFFFFFFFFFFFFFFFFFFFFFFFFFFFFFFFFFFFFFFFFFFFFFFFFF
10000be0 FFFFFFFFFFFFFFFFFFFFFFFFFFFFFFFFFFFFFFFFFFFFFFFFFFFFFFFFFFFFFFFF
10000c00 FFFFFFFFFFFFFFFFFFFFFFFFFFFFFFFFFFFFFFFFFFFFFFFFFFFFFFFFFFFFFFFF
10000c20 FFFFFFFFFFFFFFFFFFFFFFFFFFFFFFFFFFFFFFFFFFFFFFFFFFFFFFFFFFFFFFFF
10000c40 FFFFFFFFFFFFFFFFFFFFFFFFFFFFFFFFFFFFFFFFFFFFFFFFFFFFFFFFFFFFFFFF
10000c60 FFFFFFFFFFFFFFFFFFFFFFFFFFFFFFFFFFFFFFFFFFFFFFFFFFFFFFFFFFFFFFFF
10000c80 FFFFFFFFFFFFFFFFFFFFFFFFFFFFFFFFFFFFFFFFFFFFFFFFFFFFFFFFFFFFFFFF
10000ca0 FFFFFFFFFFFFFFFFFFFFFFFFFFFFFFFFFFFFFFFFFFFFFFFFFFFFFFFFFFFFFFFF
10000cc0 FFFFFFFFFFFFFFFFFFFFFFFFFFFFFFFFFFFFFFFFFFFFFFFFFFFFFFFFFFFFFFFF
10000ce0 FFFFFFFFFFFFFFFFFFFFFFFFFFFFFFFFFFFFFFFFFFFFFFFFFFFFFFFFFFFFFFFF
10000d00 FFFFFFFFFFFFFFFFFFFFFFFFFFFFFFFFFFFFFFFFFFFFFFFFFFFFFFFFFFFFFFFF
10000d20 FFFFFFFFFFFFFFFFFFFFFFFFFFFFFFFFFFFFFFFFFFFFFFFFFFFFFFFFFFFFFFFF
10000d40 FFFFFFFFFFFFFFFFFFFFFFFFFFFFFFFFFFFFFFFFFFFFFFFFFFFFFFFFFFFFFFFF
10000d60 FFFFFFFFFFFFFFFFFFFFFFFFFFFFFFFFFFFFFFFFFFFFFFFFFFFFFFFFFFFFFFFF
10000d80 FFFFFFFFFFFFFFFFFFFFFFFFFFFFFFFFFFFFFFFFFFFFFFFFFFFFFFFFFFFFFFFF
10000da0 FFFFFFFFFFFFFFFFFFFFFFFFFFFFFFFFFFFFFFFFFFFFFFFFFFFFFFFFFFFFFFFF
10000dc0 FFFFFFFFFFFFFFFFFFFFFFFFFFFFFFFFFFFFFFFFFFFFFFFFFFFFFFFFFFFFFFFF
10000de0 FFFFFFFFFFFFFFFFFFFFFFFFFFFFFFFFFFFFFFFFFFFFFFFFFFFFFFFFFFFFFFFF
10000e00 FFFFFFFFFFFFFFFFFFFFFFFFFFFFFFFFFFFFFFFFFFFFFFFFFFFFFFFFFFFFFFFF
10000e20 FFFFFFFFFFFFFFFFFFFFFFFFFFFFFFFFFFFFFFFFFFFFFFFFFFFFFFFFFFFFFFFF
10000e40 FFFFFFFFFFFFFFFFFFFFFFFFFFFFFFFFFFFFFFFFFFFFFFFFFFFFFFFFFFFFFFFF
10000e60 FFFFFFFFFFFFFFFFFFFFFFFFFFFFFFFFFFFFFFFFFFFFFFFFFFFFFFFFFFFFFFFF
10000e80 FFFFFFFFFFFFFFFFFFFFFFFFFFFFFFFFFFFFFFFFFFFFFFFFFFFFFFFFFFFFFFFF
10000ea0 FFFFFFFFFFFFFFFFFFFFFFFFFFFFFFFFFFFFFFFFFFFFFFFFFFFFFFFFFFFFFFFF
10000ec0 FFFFFFFFFFFFFFFFFFFFFFFFFFFFFFFFFFFFFFFFFFFFFFFFFFFFFFFFFFFFFFFF
10000ee0 FFFFFFFFFFFFFFFFFFFFFFFFFFFFFFFFFFFFFFFFFFFFFFFFFFFFFFFFFFFFFFFF
10000f00 FFFFFFFFFFFFFFFFFFFFFFFFFFFFFFFFFFFFFFFFFFFFFFFFFFFFFFFFFFFFFFFF
10000f20 FFFFFFFFFFFFFFFFFFFFFFFFFFFFFFFFFFFFFFFFFFFFFFFFFFFFFFFFFFFFFFFF
10000f40 FFFFFFFFFFFFFFFFFFFFFFFFFFFFFFFFFFFFFFFFFFFFFFFFFFFFFFFFFFFFFFFF
10000f60 FFFFFFFFFFFFFFFFFFFFFFFFFFFFFFFFFFFFFFFFFFFFFFFFFFFFFFFFFFFFFFFF
10000f80 FFFFFFFFFFFFFFFFFFFFFFFFFFFFFFFFFFFFFFFFFFFFFFFFFFFFFFFFFFFFFFFF
10000fa0 FFFFFFFFFFFFFFFFFFFFFFFFFFFFFFFFFFFFFFFFFFFFFFFFFFFFFFFFFFFFFFFF
10000fc0 FFFFFFFFFFFFFFFFFFFFFFFFFFFFFFFFFFFFFFFFFFFFFFFFFFFFFFFFFFFFFFFF
10000fe0 FFFFFFFFFFFFFFFFFFFFFFFFFFFFFFFFFFFFFFFFFFFFFFFFFFFFFFFFFFFFFFFF
10001000 FFFFFFFFFFFFFFFFFFFFFFFFFFFFFFFFFFFFFFFFFFFFFFFFFFFFFFFFFFFFFFFF
10001020 FFFFFFFFFFFFFFFFFFFFFFFFFFFFFFFFFFFFFFFFFFFFFFFFFFFFFFFFFFFFFFFF
10001040 FFFFFFFFFFFFFFFFFFFFFFFFFFFFFFFFFFFFFFFFFFFFFFFFFFFFFFFFFFFFFFFF
10001060 FFFFFFFFFFFFFFFFFFFFFFFFFFFFFFFFFFFFFFFFFFFFFFFFFFFFFFFFFFFFFFFF
10001080 FFFFFFFFFFFFFFFFFFFFFFFFFFFFFFFFFFFFFFFFFFFFFFFFFFFFFFFFFFFFFFFF
100010a0 FFFFFFFFFFFFFFFFFFFFFFFFFFFFFFFFFFFFFFFFFFFFFFFFFFFFFFFFFFFFFFFF
100010c0 FFFFFFFFFFFFFFFFFFFFFFFFFFFFFFFFFFFFFFFFFFFFFFFFFFFFFFFFFFFFFFFF
100010e0 FFFFFFFFFFFFFFFFFFFFFFFFFFFFFFFFFFFFFFFFFFFFFFFFFFFFFFFFFFFFFFFF
10001100 FFFFFFFFFFFFFFFFFFFFFFFFFFFFFFFFFFFFFFFFFFFFFFFFFFFFFFFFFFFFFFFF
10001120 FFFFFFFFFFFFFFFFFFFFFFFFFFFFFFFFFFFFFFFFFFFFFFFFFFFFFFFFFFFFFFFF
10001140 FFFFFFFFFFFFFFFFFFFFFFFFFFFFFFFFFFFFFFFFFFFFFFFFFFFFFFFFFFFFFFFF
10001160 FFFFFFFFFFFFFFFFFFFFFFFFFFFFFFFFFFFFFFFFFFFFFFFFFFFFFFFFFFFFFFFF
10001180 FFFFFFFFFFFFFFFFFFFFFFFFFFFFFFFFFFFFFFFFFFFFFFFFFFFFFFFFFFFFFFFF
100011a0 FFFFFFFFFFFFFFFFFFFFFFFFFFFFFFFFFFFFFFFFFFFFFFFFFFFFFFFFFFFFFFFF
100011c0 FFFFFFFFFFFFFFFFFFFFFFFFFFFFFFFFFFFFFFFFFFFFFFFFFFFFFFFFFFFFFFFF
100011e0 FFFFFFFFFFFFFFFFFFFFFFFFFFFFFFFFFFFFFFFFFFFFFFFFFFFFFFFFFFFFFFFF
10001200 FFFFFFFFFFFFFFFFFFFFFFFFFFFFFFFFFFFFFFFFFFFFFFFFFFFFFFFFFFFFFFFF
10001220 FFFFFFFFFFFFFFFFFFFFFFFFFFFFFFFFFFFFFFFFFFFFFFFFFFFFFFFFFFFFFFFF
10001240 FFFFFFFFFFFFFFFFFFFFFFFFFFFFFFFFFFFFFFFFFFFFFFFFFFFFFFFFFFFFFFFF
10001260 FFFFFFFFFFFFFFFFFFFFFFFFFFFFFFFFFFFFFFFFFFFFFFFFFFFFFFFFFFFFFFFF
10001280 FFFFFFFFFFFFFFFFFFFFFFFFFFFFFFFFFFFFFFFFFFFFFFFFFFFFFFFFFFFFFFFF
100012a0 FFFFFFFFFFFFFFFFFFFFFFFFFFFFFFFFFFFFFFFFFFFFFFFFFFFFFFFFFFFFFFFF
100012c0 FFFFFFFFFFFFFFFFFFFFFFFFFFFFFFFFFFFFFFFFFFFFFFFFFFFFFFFFFFFFFFFF
100012e0 FFFFFFFFFFFFFFFFFFFFFFFFFFFFFFFFFFFFFFFFFFFFFFFFFFFFFFFFFFFFFFFF
10001300 FFFFFFFFFFFFFFFFFFFFFFFFFFFFFFFFFFFFFFFFFFFFFFFFFFFFFFFFFFFFFFFF
10001320 FFFFFFFFFFFFFFFFFFFFFFFFFFFFFFFFFFFFFFFFFFFFFFFFFFFFFFFFFFFFFFFF
10001340 FFFFFFFFFFFFFFFFFFFFFFFFFFFFFFFFFFFFFFFFFFFFFFFFFFFFFFFFFFFFFFFF
10001360 FFFFFFFFFFFFFFFFFFFFFFFFFFFFFFFFFFFFFFFFFFFFFFFFFFFFFFFFFFFFFFFF
10001380 FFFFFFFFFFFFFFFFFFFFFFFFFFFFFFFFFFFFFFFFFFFFFFFFFFFFFFFFFFFFFFFF
100013a0 FFFFFFFFFFFFFFFFFFFFFFFFFFFFFFFFFFFFFFFFFFFFFFFFFFFFFFFFFFFFFFFF
100013c0 FFFFFFFFFFFFFFFFFFFFFFFFFFFFFFFFFFFFFFFFFFFFFFFFFFFFFFFFFFFFFFFF
100013e0 FFFFFFFFFFFFFFFFFFFFFFFFFFFFFFFFFFFFFFFFFFFFFFFFFFFFFFFFFFFFFFFF
10001400 FFFFFFFFFFFFFFFFFFFFFFFFFFFFFFFFFFFFFFFFFFFFFFFFFFFFFFFFFFFFFFFF
10001420 FFFFFFFFFFFFFFFFFFFFFFFFFFFFFFFFFFFFFFFFFFFFFFFFFFFFFFFFFFFFFFFF
10001440 FFFFFFFFFFFFFFFFFFFFFFFFFFFFFFFFFFFFFFFFFFFFFFFFFFFFFFFFFFFFFFFF
10001460 FFFFFFFFFFFFFFFFFFFFFFFFFFFFFFFFFFFFFFFFFFFFFFFFFFFFFFFFFFFFFFFF
10001480 FFFFFFFFFFFFFFFFFFFFFFFFFFFFFFFFFFFFFFFFFFFFFFFFFFFFFFFFFFFFFFFF
100014a0 FFFFFFFFFFFFFFFFFFFFFFFFFFFFFFFFFFFFFFFFFFFFFFFFFFFFFFFFFFFFFFFF
100014c0 FFFFFFFFFFFFFFFFFFFFFFFFFFFFFFFFFFFFFFFFFFFFFFFFFFFFFFFFFFFFFFFF
100014e0 FFFFFFFFFFFFFFFFFFFFFFFFFFFFFFFFFFFFFFFFFFFFFFFFFFFFFFFFFFFFFFFF
10001500 FFFFFFFFFFFFFFFFFFFFFFFFFFFFFFFFFFFFFFFFFFFFFFFFFFFFFFFFFFFFFFFF
10001520 FFFFFFFFFFFFFFFFFFFFFFFFFFFFFFFFFFFFFFFFFFFFFFFFFFFFFFFFFFFFFFFF
10001540 FFFFFFFFFFFFFFFFFFFFFFFFFFFFFFFFFFFFFFFFFFFFFFFFFFFFFFFFFFFFFFFF
10001560 FFFFFFFFFFFFFFFFFFFFFFFFFFFFFFFFFFFFFFFFFFFFFFFFFFFFFFFFFFFFFFFF
10001580 FFFFFFFFFFFFFFFFFFFFFFFFFFFFFFFFFFFFFFFFFFFFFFFFFFFFFFFFFFFFFFFF
100015a0 FFFFFFFFFFFFFFFFFFFFFFFFFFFFFFFFFFFFFFFFFFFFFFFFFFFFFFFFFFFFFFFF
100015c0 FFFFFFFFFFFFFFFFFFFFFFFFFFFFFFFFFFFFFFFFFFFFFFFFFFFFFFFFFFFFFFFF
100015e0 FFFFFFFFFFFFFFFFFFFFFFFFFFFFFFFFFFFFFFFFFFFFFFFFFFFFFFFFFFFFFFFF
10001600 FFFFFFFFFFFFFFFFFFFFFFFFFFFFFFFFFFFFFFFFFFFFFFFFFFFFFFFFFFFFFFFF
10001620 FFFFFFFFFFFFFFFFFFFFFFFFFFFFFFFFFFFFFFFFFFFFFFFFFFFFFFFFFFFFFFFF
10001640 FFFFFFFFFFFFFFFFFFFFFFFFFFFFFFFFFFFFFFFFFFFFFFFFFFFFFFFFFFFFFFFF
10001660 FFFFFFFFFFFFFFFFFFFFFFFFFFFFFFFFFFFFFFFFFFFFFFFFFFFFFFFFFFFFFFFF
10001680 FFFFFFFFFFFFFFFFFFFFFFFFFFFFFFFFFFFFFFFFFFFFFFFFFFFFFFFFFFFFFFFF
100016a0 FFFFFFFFFFFFFFFFFFFFFFFFFFFFFFFFFFFFFFFFFFFFFFFFFFFFFFFFFFFFFFFF
100016c0 FFFFFFFFFFFFFFFFFFFFFFFFFFFFFFFFFFFFFFFFFFFFFFFFFFFFFFFFFFFFFFFF
100016e0 FFFFFFFFFFFFFFFFFFFFFFFFFFFFFFFFFFFFFFFFFFFFFFFFFFFFFFFFFFFFFFFF
10001700 FFFFFFFFFFFFFFFFFFFFFFFFFFFFFFFFFFFFFFFFFFFFFFFFFFFFFFFFFFFFFFFF
10001720 FFFFFFFFFFFFFFFFFFFFFFFFFFFFFFFFFFFFFFFFFFFFFFFFFFFFFFFFFFFFFFFF
10001740 FFFFFFFFFFFFFFFFFFFFFFFFFFFFFFFFFFFFFFFFFFFFFFFFFFFFFFFFFFFFFFFF
10001760 FFFFFFFFFFFFFFFFFFFFFFFFFFFFFFFFFFFFFFFFFFFFFFFFFFFFFFFFFFFFFFFF
10001780 FFFFFFFFFFFFFFFFFFFFFFFFFFFFFFFFFFFFFFFFFFFFFFFFFFFFFFFFFFFFFFFF
100017a0 FFFFFFFFFFFFFFFFFFFFFFFFFFFFFFFFFFFFFFFFFFFFFFFFFFFFFFFFFFFFFFFF
100017c0 FFFFFFFFFFFFFFFFFFFFFFFFFFFFFFFFFFFFFFFFFFFFFFFFFFFFFFFFFFFFFFFF
100017e0 FFFFFFFFFFFFFFFFFFFFFFFFFFFFFFFFFFFFFFFFFFFFFFFFFFFFFFFFFFFFFFFF
10001800 FFFFFFFFFFFFFFFFFFFFFFFFFFFFFFFFFFFFFFFFFFFFFFFFFFFFFFFFFFFFFFFF
10001820 FFFFFFFFFFFFFFFFFFFFFFFFFFFFFFFFFFFFFFFFFFFFFFFFFFFFFFFFFFFFFFFF
10001840 FFFFFFFFFFFFFFFFFFFFFFFFFFFFFFFFFFFFFFFFFFFFFFFFFFFFFFFFFFFFFFFF
10001860 FFFFFFFFFFFFFFFFFFFFFFFFFFFFFFFFFFFFFFFFFFFFFFFFFFFFFFFFFFFFFFFF
10001880 FFFFFFFFFFFFFFFFFFFFFFFFFFFFFFFFFFFFFFFFFFFFFFFFFFFFFFFFFFFFFFFF
100018a0 FFFFFFFFFFFFFFFFFFFFFFFFFFFFFFFFFFFFFFFFFFFFFFFFFFFFFFFFFFFFFFFF
100018c0 FFFFFFFFFFFFFFFFFFFFFFFFFFFFFFFFFFFFFFFFFFFFFFFFFFFFFFFFFFFFFFFF
100018e0 FFFFFFFFFFFFFFFFFFFFFFFFFFFFFFFFFFFFFFFFFFFFFFFFFFFFFFFFFFFFFFFF
10001900 FFFFFFFFFFFFFFFFFFFFFFFFFFFFFFFFFFFFFFFFFFFFFFFFFFFFFFFFFFFFFFFF
10001920 FFFFFFFFFFFFFFFFFFFFFFFFFFFFFFFFFFFFFFFFFFFFFFFFFFFFFFFFFFFFFFFF
10001940 FFFFFFFFFFFFFFFFFFFFFFFFFFFFFFFFFFFFFFFFFFFFFFFFFFFFFFFFFFFFFFFF
10001960 FFFFFFFFFFFFFFFFFFFFFFFFFFFFFFFFFFFFFFFFFFFFFFFFFFFFFFFFFFFFFFFF
10001980 FFFFFFFFFFFFFFFFFFFFFFFFFFFFFFFFFFFFFFFFFFFFFFFFFFFFFFFFFFFFFFFF
100019a0 FFFFFFFFFFFFFFFFFFFFFFFFFFFFFFFFFFFFFFFFFFFFFFFFFFFFFFFFFFFFFFFF
100019c0 FFFFFFFFFFFFFFFFFFFFFFFFFFFFFFFFFFFFFFFFFFFFFFFFFFFFFFFFFFFFFFFF
100019e0 FFFFFFFFFFFFFFFFFFFFFFFFFFFFFFFFFFFFFFFFFFFFFFFFFFFFFFFFFFFFFFFF
10001a00 FFFFFFFFFFFFFFFFFFFFFFFFFFFFFFFFFFFFFFFFFFFFFFFFFFFFFFFFFFFFFFFF
10001a20 FFFFFFFFFFFFFFFFFFFFFFFFFFFFFFFFFFFFFFFFFFFFFFFFFFFFFFFFFFFFFFFF
10001a40 FFFFFFFFFFFFFFFFFFFFFFFFFFFFFFFFFFFFFFFFFFFFFFFFFFFFFFFFFFFFFFFF
10001a60 FFFFFFFFFFFFFFFFFFFFFFFFFFFFFFFFFFFFFFFFFFFFFFFFFFFFFFFFFFFFFFFF
10001a80 FFFFFFFFFFFFFFFFFFFFFFFFFFFFFFFFFFFFFFFFFFFFFFFFFFFFFFFFFFFFFFFF
10001aa0 FFFFFFFFFFFFFFFFFFFFFFFFFFFFFFFFFFFFFFFFFFFFFFFFFFFFFFFFFFFFFFFF
10001ac0 FFFFFFFFFFFFFFFFFFFFFFFFFFFFFFFFFFFFFFFFFFFFFFFFFFFFFFFFFFFFFFFF
10001ae0 FFFFFFFFFFFFFFFFFFFFFFFFFFFFFFFFFFFFFFFFFFFFFFFFFFFFFFFFFFFFFFFF
10001b00 FFFFFFFFFFFFFFFFFFFFFFFFFFFFFFFFFFFFFFFFFFFFFFFFFFFFFFFFFFFFFFFF
10001b20 FFFFFFFFFFFFFFFFFFFFFFFFFFFFFFFFFFFFFFFFFFFFFFFFFFFFFFFFFFFFFFFF
10001b40 FFFFFFFFFFFFFFFFFFFFFFFFFFFFFFFFFFFFFFFFFFFFFFFFFFFFFFFFFFFFFFFF
10001b60 FFFFFFFFFFFFFFFFFFFFFFFFFFFFFFFFFFFFFFFFFFFFFFFFFFFFFFFFFFFFFFFF
10001b80 FFFFFFFFFFFFFFFFFFFFFFFFFFFFFFFFFFFFFFFFFFFFFFFFFFFFFFFFFFFFFFFF
10001ba0 FFFFFFFFFFFFFFFFFFFFFFFFFFFFFFFFFFFFFFFFFFFFFFFFFFFFFFFFFFFFFFFF
10001bc0 FFFFFFFFFFFFFFFFFFFFFFFFFFFFFFFFFFFFFFFFFFFFFFFFFFFFFFFFFFFFFFFF
10001be0 FFFFFFFFFFFFFFFFFFFFFFFFFFFFFFFFFFFFFFFFFFFFFFFFFFFFFFFFFFFFFFFF
10001c00 FFFFFFFFFFFFFFFFFFFFFFFFFFFFFFFFFFFFFFFFFFFFFFFFFFFFFFFFFFFFFFFF
10001c20 FFFFFFFFFFFFFFFFFFFFFFFFFFFFFFFFFFFFFFFFFFFFFFFFFFFFFFFFFFFFFFFF
10001c40 FFFFFFFFFFFFFFFFFFFFFFFFFFFFFFFFFFFFFFFFFFFFFFFFFFFFFFFFFFFFFFFF
10001c60 FFFFFFFFFFFFFFFFFFFFFFFFFFFFFFFFFFFFFFFFFFFFFFFFFFFFFFFFFFFFFFFF
10001c80 FFFFFFFFFFFFFFFFFFFFFFFFFFFFFFFFFFFFFFFFFFFFFFFFFFFFFFFFFFFFFFFF
10001ca0 FFFFFFFFFFFFFFFFFFFFFFFFFFFFFFFFFFFFFFFFFFFFFFFFFFFFFFFFFFFFFFFF
10001cc0 FFFFFFFFFFFFFFFFFFFFFFFFFFFFFFFFFFFFFFFFFFFFFFFFFFFFFFFFFFFFFFFF
10001ce0 FFFFFFFFFFFFFFFFFFFFFFFFFFFFFFFFFFFFFFFFFFFFFFFFFFFFFFFFFFFFFFFF
10001d00 FFFFFFFFFFFFFFFFFFFFFFFFFFFFFFFFFFFFFFFFFFFFFFFFFFFFFFFFFFFFFFFF
10001d20 FFFFFFFFFFFFFFFFFFFFFFFFFFFFFFFFFFFFFFFFFFFFFFFFFFFFFFFFFFFFFFFF
10001d40 FFFFFFFFFFFFFFFFFFFFFFFFFFFFFFFFFFFFFFFFFFFFFFFFFFFFFFFFFFFFFFFF
10001d60 FFFFFFFFFFFFFFFFFFFFFFFFFFFFFFFFFFFFFFFFFFFFFFFFFFFFFFFFFFFFFFFF
10001d80 FFFFFFFFFFFFFFFFFFFFFFFFFFFFFFFFFFFFFFFFFFFFFFFFFFFFFFFFFFFFFFFF
10001da0 FFFFFFFFFFFFFFFFFFFFFFFFFFFFFFFFFFFFFFFFFFFFFFFFFFFFFFFFFFFFFFFF
10001dc0 FFFFFFFFFFFFFFFFFFFFFFFFFFFFFFFFFFFFFFFFFFFFFFFFFFFFFFFFFFFFFFFF
10001de0 FFFFFFFFFFFFFFFFFFFFFFFFFFFFFFFFFFFFFFFFFFFFFFFFFFFFFFFFFFFFFFFF
10001e00 FFFFFFFFFFFFFFFFFFFFFFFFFFFFFFFFFFFFFFFFFFFFFFFFFFFFFFFFFFFFFFFF
10001e20 FFFFFFFFFFFFFFFFFFFFFFFFFFFFFFFFFFFFFFFFFFFFFFFFFFFFFFFFFFFFFFFF
10001e40 FFFFFFFFFFFFFFFFFFFFFFFFFFFFFFFFFFFFFFFFFFFFFFFFFFFFFFFFFFFFFFFF
10001e60 FFFFFFFFFFFFFFFFFFFFFFFFFFFFFFFFFFFFFFFFFFFFFFFFFFFFFFFFFFFFFFFF
10001e80 FFFFFFFFFFFFFFFFFFFFFFFFFFFFFFFFFFFFFFFFFFFFFFFFFFFFFFFFFFFFFFFF
10001ea0 FFFFFFFFFFFFFFFFFFFFFFFFFFFFFFFFFFFFFFFFFFFFFFFFFFFFFFFFFFFFFFFF
10001ec0 FFFFFFFFFFFFFFFFFFFFFFFFFFFFFFFFFFFFFFFFFFFFFFFFFFFFFFFFFFFFFFFF
10001ee0 FFFFFFFFFFFFFFFFFFFFFFFFFFFFFFFFFFFFFFFFFFFFFFFFFFFFFFFFFFFFFFFF
10001f00 FFFFFFFFFFFFFFFFFFFFFFFFFFFFFFFFFFFFFFFFFFFFFFFFFFFFFFFFFFFFFFFF
10001f20 FFFFFFFFFFFFFFFFFFFFFFFFFFFFFFFFFFFFFFFFFFFFFFFFFFFFFFFFFFFFFFFF
10001f40 FFFFFFFFFFFFFFFFFFFFFFFFFFFFFFFFFFFFFFFFFFFFFFFFFFFFFFFFFFFFFFFF
10001f60 FFFFFFFFFFFFFFFFFFFFFFFFFFFFFFFFFFFFFFFFFFFFFFFFFFFFFFFFFFFFFFFF
10001f80 FFFFFFFFFFFFFFFFFFFFFFFFFFFFFFFFFFFFFFFFFFFFFFFFFFFFFFFFFFFFFFFF
10001fa0 FFFFFFFFFFFFFFFFFFFFFFFFFFFFFFFFFFFFFFFFFFFFFFFFFFFFFFFFFFFFFFFF
10001fc0 FFFFFFFFFFFFFFFFFFFFFFFFFFFFFFFFFFFFFFFFFFFFFFFFFFFFFFFFFFFFFFFF
10001fe0 FFFFFFFFFFFFFFFFFFFFFFFFFFFFFFFFFFFFFFFFFFFFFFFFFFFFFFFFFFFFFFFF
10002000 FFFFFFFFFFFFFFFFFFFFFFFFFFFFFFFFFFFFFFFFFFFFFFFFFFFFFFFFFFFFFFFF
10002020 FFFFFFFFFFFFFFFFFFFFFFFFFFFFFFFFFFFFFFFFFFFFFFFFFFFFFFFFFFFFFFFF
10002040 FFFFFFFFFFFFFFFFFFFFFFFFFFFFFFFFFFFFFFFFFFFFFFFFFFFFFFFFFFFFFFFF
10002060 FFFFFFFFFFFFFFFFFFFFFFFFFFFFFFFFFFFFFFFFFFFFFFFFFFFFFFFFFFFFFFFF
10002080 FFFFFFFFFFFFFFFFFFFFFFFFFFFFFFFFFFFFFFFFFFFFFFFFFFFFFFFFFFFFFFFF
100020a0 FFFFFFFFFFFFFFFFFFFFFFFFFFFFFFFFFFFFFFFFFFFFFFFFFFFFFFFFFFFFFFFF
100020c0 FFFFFFFFFFFFFFFFFFFFFFFFFFFFFFFFFFFFFFFFFFFFFFFFFFFFFFFFFFFFFFFF
100020e0 FFFFFFFFFFFFFFFFFFFFFFFFFFFFFFFFFFFFFFFFFFFFFFFFFFFFFFFFFFFFFFFF
10002100 FFFFFFFFFFFFFFFFFFFFFFFFFFFFFFFFFFFFFFFFFFFFFFFFFFFFFFFFFFFFFFFF
10002120 FFFFFFFFFFFFFFFFFFFFFFFFFFFFFFFFFFFFFFFFFFFFFFFFFFFFFFFFFFFFFFFF
10002140 FFFFFFFFFFFFFFFFFFFFFFFFFFFFFFFFFFFFFFFFFFFFFFFFFFFFFFFFFFFFFFFF
10002160 FFFFFFFFFFFFFFFFFFFFFFFFFFFFFFFFFFFFFFFFFFFFFFFFFFFFFFFFFFFFFFFF
10002180 FFFFFFFFFFFFFFFFFFFFFFFFFFFFFFFFFFFFFFFFFFFFFFFFFFFFFFFFFFFFFFFF
100021a0 FFFFFFFFFFFFFFFFFFFFFFFFFFFFFFFFFFFFFFFFFFFFFFFFFFFFFFFFFFFFFFFF
100021c0 FFFFFFFFFFFFFFFFFFFFFFFFFFFFFFFFFFFFFFFFFFFFFFFFFFFFFFFFFFFFFFFF
100021e0 FFFFFFFFFFFFFFFFFFFFFFFFFFFFFFFFFFFFFFFFFFFFFFFFFFFFFFFFFFFFFFFF
10002200 FFFFFFFFFFFFFFFFFFFFFFFFFFFFFFFFFFFFFFFFFFFFFFFFFFFFFFFFFFFFFFFF
10002220 FFFFFFFFFFFFFFFFFFFFFFFFFFFFFFFFFFFFFFFFFFFFFFFFFFFFFFFFFFFFFFFF
10002240 FFFFFFFFFFFFFFFFFFFFFFFFFFFFFFFFFFFFFFFFFFFFFFFFFFFFFFFFFFFFFFFF
10002260 FFFFFFFFFFFFFFFFFFFFFFFFFFFFFFFFFFFFFFFFFFFFFFFFFFFFFFFFFFFFFFFF
10002280 FFFFFFFFFFFFFFFFFFFFFFFFFFFFFFFFFFFFFFFFFFFFFFFFFFFFFFFFFFFFFFFF
100022a0 FFFFFFFFFFFFFFFFFFFFFFFFFFFFFFFFFFFFFFFFFFFFFFFFFFFFFFFFFFFFFFFF
100022c0 FFFFFFFFFFFFFFFFFFFFFFFFFFFFFFFFFFFFFFFFFFFFFFFFFFFFFFFFFFFFFFFF
100022e0 FFFFFFFFFFFFFFFFFFFFFFFFFFFFFFFFFFFFFFFFFFFFFFFFFFFFFFFFFFFFFFFF
10002300 FFFFFFFFFFFFFFFFFFFFFFFFFFFFFFFFFFFFFFFFFFFFFFFFFFFFFFFFFFFFFFFF
10002320 FFFFFFFFFFFFFFFFFFFFFFFFFFFFFFFFFFFFFFFFFFFFFFFFFFFFFFFFFFFFFFFF
10002340 FFFFFFFFFFFFFFFFFFFFFFFFFFFFFFFFFFFFFFFFFFFFFFFFFFFFFFFFFFFFFFFF
10002360 FFFFFFFFFFFFFFFFFFFFFFFFFFFFFFFFFFFFFFFFFFFFFFFFFFFFFFFFFFFFFFFF
10002380 FFFFFFFFFFFFFFFFFFFFFFFFFFFFFFFFFFFFFFFFFFFFFFFFFFFFFFFFFFFFFFFF
100023a0 FFFFFFFFFFFFFFFFFFFFFFFFFFFFFFFFFFFFFFFFFFFFFFFFFFFFFFFFFFFFFFFF
100023c0 FFFFFFFFFFFFFFFFFFFFFFFFFFFFFFFFFFFFFFFFFFFFFFFFFFFFFFFFFFFFFFFF
100023e0 FFFFFFFFFFFFFFFFFFFFFFFFFFFFFFFFFFFFFFFFFFFFFFFFFFFFFFFFFFFFFFFF
10002400 FFFFFFFFFFFFFFFFFFFFFFFFFFFFFFFFFFFFFFFFFFFFFFFFFFFFFFFFFFFFFFFF
10002420 FFFFFFFFFFFFFFFFFFFFFFFFFFFFFFFFFFFFFFFFFFFFFFFFFFFFFFFFFFFFFFFF
10002440 FFFFFFFFFFFFFFFFFFFFFFFFFFFFFFFFFFFFFFFFFFFFFFFFFFFFFFFFFFFFFFFF
10002460 FFFFFFFFFFFFFFFFFFFFFFFFFFFFFFFFFFFFFFFFFFFFFFFFFFFFFFFFFFFFFFFF
10002480 FFFFFFFFFFFFFFFFFFFFFFFFFFFFFFFFFFFFFFFFFFFFFFFFFFFFFFFFFFFFFFFF
100024a0 FFFFFFFFFFFFFFFFFFFFFFFFFFFFFFFFFFFFFFFFFFFFFFFFFFFFFFFFFFFFFFFF
100024c0 FFFFFFFFFFFFFFFFFFFFFFFFFFFFFFFFFFFFFFFFFFFFFFFFFFFFFFFFFFFFFFFF
100024e0 FFFFFFFFFFFFFFFFFFFFFFFFFFFFFFFFFFFFFFFFFFFFFFFFFFFFFFFFFFFFFFFF
10002500 FFFFFFFFFFFFFFFFFFFFFFFFFFFFFFFFFFFFFFFFFFFFFFFFFFFFFFFFFFFFFFFF
10002520 FFFFFFFFFFFFFFFFFFFFFFFFFFFFFFFFFFFFFFFFFFFFFFFFFFFFFFFFFFFFFFFF
10002540 FFFFFFFFFFFFFFFFFFFFFFFFFFFFFFFFFFFFFFFFFFFFFFFFFFFFFFFFFFFFFFFF
10002560 FFFFFFFFFFFFFFFFFFFFFFFFFFFFFFFFFFFFFFFFFFFFFFFFFFFFFFFFFFFFFFFF
10002580 FFFFFFFFFFFFFFFFFFFFFFFFFFFFFFFFFFFFFFFFFFFFFFFFFFFFFFFFFFFFFFFF
100025a0 FFFFFFFFFFFFFFFFFFFFFFFFFFFFFFFFFFFFFFFFFFFFFFFFFFFFFFFFFFFFFFFF
100025c0 FFFFFFFFFFFFFFFFFFFFFFFFFFFFFFFFFFFFFFFFFFFFFFFFFFFFFFFFFFFFFFFF
100025e0 FFFFFFFFFFFFFFFFFFFFFFFFFFFFFFFFFFFFFFFFFFFFFFFFFFFFFFFFFFFFFFFF
10002600 FFFFFFFFFFFFFFFFFFFFFFFFFFFFFFFFFFFFFFFFFFFFFFFFFFFFFFFFFFFFFFFF
10002620 FFFFFFFFFFFFFFFFFFFFFFFFFFFFFFFFFFFFFFFFFFFFFFFFFFFFFFFFFFFFFFFF
10002640 FFFFFFFFFFFFFFFFFFFFFFFFFFFFFFFFFFFFFFFFFFFFFFFFFFFFFFFFFFFFFFFF
10002660 FFFFFFFFFFFFFFFFFFFFFFFFFFFFFFFFFFFFFFFFFFFFFFFFFFFFFFFFFFFFFFFF
10002680 FFFFFFFFFFFFFFFFFFFFFFFFFFFFFFFFFFFFFFFFFFFFFFFFFFFFFFFFFFFFFFFF
100026a0 FFFFFFFFFFFFFFFFFFFFFFFFFFFFFFFFFFFFFFFFFFFFFFFFFFFFFFFFFFFFFFFF
100026c0 FFFFFFFFFFFFFFFFFFFFFFFFFFFFFFFFFFFFFFFFFFFFFFFFFFFFFFFFFFFFFFFF
100026e0 FFFFFFFFFFFFFFFFFFFFFFFFFFFFFFFFFFFFFFFFFFFFFFFFFFFFFFFFFFFFFFFF
10002700 FFFFFFFFFFFFFFFFFFFFFFFFFFFFFFFFFFFFFFFFFFFFFFFFFFFFFFFFFFFFFFFF
10002720 FFFFFFFFFFFFFFFFFFFFFFFFFFFFFFFFFFFFFFFFFFFFFFFFFFFFFFFFFFFFFFFF
10002740 FFFFFFFFFFFFFFFFFFFFFFFFFFFFFFFFFFFFFFFFFFFFFFFFFFFFFFFFFFFFFFFF
10002760 FFFFFFFFFFFFFFFFFFFFFFFFFFFFFFFFFFFFFFFFFFFFFFFFFFFFFFFFFFFFFFFF
10002780 FFFFFFFFFFFFFFFFFFFFFFFFFFFFFFFFFFFFFFFFFFFFFFFFFFFFFFFFFFFFFFFF
100027a0 FFFFFFFFFFFFFFFFFFFFFFFFFFFFFFFFFFFFFFFFFFFFFFFFFFFFFFFFFFFFFFFF
100027c0 FFFFFFFFFFFFFFFFFFFFFFFFFFFFFFFFFFFFFFFFFFFFFFFFFFFFFFFFFFFFFFFF
100027e0 FFFFFFFFFFFFFFFFFFFFFFFFFFFFFFFFFFFFFFFFFFFFFFFFFFFFFFFFFFFFFFFF
10002800 FFFFFFFFFFFFFFFFFFFFFFFFFFFFFFFFFFFFFFFFFFFFFFFFFFFFFFFFFFFFFFFF
10002820 FFFFFFFFFFFFFFFFFFFFFFFFFFFFFFFFFFFFFFFFFFFFFFFFFFFFFFFFFFFFFFFF
10002840 FFFFFFFFFFFFFFFFFFFFFFFFFFFFFFFFFFFFFFFFFFFFFFFFFFFFFFFFFFFFFFFF
10002860 FFFFFFFFFFFFFFFFFFFFFFFFFFFFFFFFFFFFFFFFFFFFFFFFFFFFFFFFFFFFFFFF
10002880 FFFFFFFFFFFFFFFFFFFFFFFFFFFFFFFFFFFFFFFFFFFFFFFFFFFFFFFFFFFFFFFF
100028a0 FFFFFFFFFFFFFFFFFFFFFFFFFFFFFFFFFFFFFFFFFFFFFFFFFFFFFFFFFFFFFFFF
100028c0 FFFFFFFFFFFFFFFFFFFFFFFFFFFFFFFFFFFFFFFFFFFFFFFFFFFFFFFFFFFFFFFF
100028e0 FFFFFFFFFFFFFFFFFFFFFFFFFFFFFFFFFFFFFFFFFFFFFFFFFFFFFFFFFFFFFFFF
10002900 FFFFFFFFFFFFFFFFFFFFFFFFFFFFFFFFFFFFFFFFFFFFFFFFFFFFFFFFFFFFFFFF
10002920 FFFFFFFFFFFFFFFFFFFFFFFFFFFFFFFFFFFFFFFFFFFFFFFFFFFFFFFFFFFFFFFF
10002940 FFFFFFFFFFFFFFFFFFFFFFFFFFFFFFFFFFFFFFFFFFFFFFFFFFFFFFFFFFFFFFFF
10002960 FFFFFFFFFFFFFFFFFFFFFFFFFFFFFFFFFFFFFFFFFFFFFFFFFFFFFFFFFFFFFFFF
10002980 FFFFFFFFFFFFFFFFFFFFFFFFFFFFFFFFFFFFFFFFFFFFFFFFFFFFFFFFFFFFFFFF
100029a0 FFFFFFFFFFFFFFFFFFFFFFFFFFFFFFFFFFFFFFFFFFFFFFFFFFFFFFFFFFFFFFFF
100029c0 FFFFFFFFFFFFFFFFFFFFFFFFFFFFFFFFFFFFFFFFFFFFFFFFFFFFFFFFFFFFFFFF
100029e0 FFFFFFFFFFFFFFFFFFFFFFFFFFFFFFFFFFFFFFFFFFFFFFFFFFFFFFFFFFFFFFFF
10002a00 FFFFFFFFFFFFFFFFFFFFFFFFFFFFFFFFFFFFFFFFFFFFFFFFFFFFFFFFFFFFFFFF
10002a20 FFFFFFFFFFFFFFFFFFFFFFFFFFFFFFFFFFFFFFFFFFFFFFFFFFFFFFFFFFFFFFFF
10002a40 FFFFFFFFFFFFFFFFFFFFFFFFFFFFFFFFFFFFFFFFFFFFFFFFFFFFFFFFFFFFFFFF
10002a60 FFFFFFFFFFFFFFFFFFFFFFFFFFFFFFFFFFFFFFFFFFFFFFFFFFFFFFFFFFFFFFFF
10002a80 FFFFFFFFFFFFFFFFFFFFFFFFFFFFFFFFFFFFFFFFFFFFFFFFFFFFFFFFFFFFFFFF
10002aa0 FFFFFFFFFFFFFFFFFFFFFFFFFFFFFFFFFFFFFFFFFFFFFFFFFFFFFFFFFFFFFFFF
10002ac0 FFFFFFFFFFFFFFFFFFFFFFFFFFFFFFFFFFFFFFFFFFFFFFFFFFFFFFFFFFFFFFFF
10002ae0 FFFFFFFFFFFFFFFFFFFFFFFFFFFFFFFFFFFFFFFFFFFFFFFFFFFFFFFFFFFFFFFF
10002b00 FFFFFFFFFFFFFFFFFFFFFFFFFFFFFFFFFFFFFFFFFFFFFFFFFFFFFFFFFFFFFFFF
10002b20 FFFFFFFFFFFFFFFFFFFFFFFFFFFFFFFFFFFFFFFFFFFFFFFFFFFFFFFFFFFFFFFF
10002b40 FFFFFFFFFFFFFFFFFFFFFFFFFFFFFFFFFFFFFFFFFFFFFFFFFFFFFFFFFFFFFFFF
10002b60 FFFFFFFFFFFFFFFFFFFFFFFFFFFFFFFFFFFFFFFFFFFFFFFFFFFFFFFFFFFFFFFF
10002b80 FFFFFFFFFFFFFFFFFFFFFFFFFFFFFFFFFFFFFFFFFFFFFFFFFFFFFFFFFFFFFFFF
10002ba0 FFFFFFFFFFFFFFFFFFFFFFFFFFFFFFFFFFFFFFFFFFFFFFFFFFFFFFFFFFFFFFFF
10002bc0 FFFFFFFFFFFFFFFFFFFFFFFFFFFFFFFFFFFFFFFFFFFFFFFFFFFFFFFFFFFFFFFF
10002be0 FFFFFFFFFFFFFFFFFFFFFFFFFFFFFFFFFFFFFFFFFFFFFFFFFFFFFFFFFFFFFFFF
10002c00 FFFFFFFFFFFFFFFFFFFFFFFFFFFFFFFFFFFFFFFFFFFFFFFFFFFFFFFFFFFFFFFF
10002c20 FFFFFFFFFFFFFFFFFFFFFFFFFFFFFFFFFFFFFFFFFFFFFFFFFFFFFFFFFFFFFFFF
10002c40 FFFFFFFFFFFFFFFFFFFFFFFFFFFFFFFFFFFFFFFFFFFFFFFFFFFFFFFFFFFFFFFF
10002c60 FFFFFFFFFFFFFFFFFFFFFFFFFFFFFFFFFFFFFFFFFFFFFFFFFFFFFFFFFFFFFFFF
10002c80 FFFFFFFFFFFFFFFFFFFFFFFFFFFFFFFFFFFFFFFFFFFFFFFFFFFFFFFFFFFFFFFF
10002ca0 FFFFFFFFFFFFFFFFFFFFFFFFFFFFFFFFFFFFFFFFFFFFFFFFFFFFFFFFFFFFFFFF
10002cc0 FFFFFFFFFFFFFFFFFFFFFFFFFFFFFFFFFFFFFFFFFFFFFFFFFFFFFFFFFFFFFFFF
10002ce0 FFFFFFFFFFFFFFFFFFFFFFFFFFFFFFFFFFFFFFFFFFFFFFFFFFFFFFFFFFFFFFFF
10002d00 FFFFFFFFFFFFFFFFFFFFFFFFFFFFFFFFFFFFFFFFFFFFFFFFFFFFFFFFFFFFFFFF
10002d20 FFFFFFFFFFFFFFFFFFFFFFFFFFFFFFFFFFFFFFFFFFFFFFFFFFFFFFFFFFFFFFFF
10002d40 FFFFFFFFFFFFFFFFFFFFFFFFFFFFFFFFFFFFFFFFFFFFFFFFFFFFFFFFFFFFFFFF
10002d60 FFFFFFFFFFFFFFFFFFFFFFFFFFFFFFFFFFFFFFFFFFFFFFFFFFFFFFFFFFFFFFFF
10002d80 FFFFFFFFFFFFFFFFFFFFFFFFFFFFFFFFFFFFFFFFFFFFFFFFFFFFFFFFFFFFFFFF
10002da0 FFFFFFFFFFFFFFFFFFFFFFFFFFFFFFFFFFFFFFFFFFFFFFFFFFFFFFFFFFFFFFFF
10002dc0 FFFFFFFFFFFFFFFFFFFFFFFFFFFFFFFFFFFFFFFFFFFFFFFFFFFFFFFFFFFFFFFF
10002de0 FFFFFFFFFFFFFFFFFFFFFFFFFFFFFFFFFFFFFFFFFFFFFFFFFFFFFFFFFFFFFFFF
10002e00 FFFFFFFFFFFFFFFFFFFFFFFFFFFFFFFFFFFFFFFFFFFFFFFFFFFFFFFFFFFFFFFF
10002e20 FFFFFFFFFFFFFFFFFFFFFFFFFFFFFFFFFFFFFFFFFFFFFFFFFFFFFFFFFFFFFFFF
10002e40 FFFFFFFFFFFFFFFFFFFFFFFFFFFFFFFFFFFFFFFFFFFFFFFFFFFFFFFFFFFFFFFF
10002e60 FFFFFFFFFFFFFFFFFFFFFFFFFFFFFFFFFFFFFFFFFFFFFFFFFFFFFFFFFFFFFFFF
10002e80 FFFFFFFFFFFFFFFFFFFFFFFFFFFFFFFFFFFFFFFFFFFFFFFFFFFFFFFFFFFFFFFF
10002ea0 FFFFFFFFFFFFFFFFFFFFFFFFFFFFFFFFFFFFFFFFFFFFFFFFFFFFFFFFFFFFFFFF
10002ec0 FFFFFFFFFFFFFFFFFFFFFFFFFFFFFFFFFFFFFFFFFFFFFFFFFFFFFFFFFFFFFFFF
10002ee0 FFFFFFFFFFFFFFFFFFFFFFFFFFFFFFFFFFFFFFFFFFFFFFFFFFFFFFFFFFFFFFFF
10002f00 FFFFFFFFFFFFFFFFFFFFFFFFFFFFFFFFFFFFFFFFFFFFFFFFFFFFFFFFFFFFFFFF
10002f20 FFFFFFFFFFFFFFFFFFFFFFFFFFFFFFFFFFFFFFFFFFFFFFFFFFFFFFFFFFFFFFFF
10002f40 FFFFFFFFFFFFFFFFFFFFFFFFFFFFFFFFFFFFFFFFFFFFFFFFFFFFFFFFFFFFFFFF
10002f60 FFFFFFFFFFFFFFFFFFFFFFFFFFFFFFFFFFFFFFFFFFFFFFFFFFFFFFFFFFFFFFFF
10002f80 FFFFFFFFFFFFFFFFFFFFFFFFFFFFFFFFFFFFFFFFFFFFFFFFFFFFFFFFFFFFFFFF
10002fa0 FFFFFFFFFFFFFFFFFFFFFFFFFFFFFFFFFFFFFFFFFFFFFFFFFFFFFFFFFFFFFFFF
10002fc0 FFFFFFFFFFFFFFFFFFFFFFFFFFFFFFFFFFFFFFFFFFFFFFFFFFFFFFFFFFFFFFFF
10002fe0 FFFFFFFFFFFFFFFFFFFFFFFFFFFFFFFFFFFFFFFFFFFFFFFFFFFFFFFFFFFFFFFF
10003000 FFFFFFFFFFFFFFFFFFFFFFFFFFFFFFFFFFFFFFFFFFFFFFFFFFFFFFFFFFFFFFFF
10003020 FFFFFFFFFFFFFFFFFFFFFFFFFFFFFFFFFFFFFFFFFFFFFFFFFFFFFFFFFFFFFFFF
10003040 FFFFFFFFFFFFFFFFFFFFFFFFFFFFFFFFFFFFFFFFFFFFFFFFFFFFFFFFFFFFFFFF
10003060 FFFFFFFFFFFFFFFFFFFFFFFFFFFFFFFFFFFFFFFFFFFFFFFFFFFFFFFFFFFFFFFF
10003080 FFFFFFFFFFFFFFFFFFFFFFFFFFFFFFFFFFFFFFFFFFFFFFFFFFFFFFFFFFFFFFFF
100030a0 FFFFFFFFFFFFFFFFFFFFFFFFFFFFFFFFFFFFFFFFFFFFFFFFFFFFFFFFFFFFFFFF
100030c0 FFFFFFFFFFFFFFFFFFFFFFFFFFFFFFFFFFFFFFFFFFFFFFFFFFFFFFFFFFFFFFFF
100030e0 FFFFFFFFFFFFFFFFFFFFFFFFFFFFFFFFFFFFFFFFFFFFFFFFFFFFFFFFFFFFFFFF
10003100 FFFFFFFFFFFFFFFFFFFFFFFFFFFFFFFFFFFFFFFFFFFFFFFFFFFFFFFFFFFFFFFF
10003120 FFFFFFFFFFFFFFFFFFFFFFFFFFFFFFFFFFFFFFFFFFFFFFFFFFFFFFFFFFFFFFFF
10003140 FFFFFFFFFFFFFFFFFFFFFFFFFFFFFFFFFFFFFFFFFFFFFFFFFFFFFFFFFFFFFFFF
10003160 FFFFFFFFFFFFFFFFFFFFFFFFFFFFFFFFFFFFFFFFFFFFFFFFFFFFFFFFFFFFFFFF
10003180 FFFFFFFFFFFFFFFFFFFFFFFFFFFFFFFFFFFFFFFFFFFFFFFFFFFFFFFFFFFFFFFF
100031a0 FFFFFFFFFFFFFFFFFFFFFFFFFFFFFFFFFFFFFFFFFFFFFFFFFFFFFFFFFFFFFFFF
100031c0 FFFFFFFFFFFFFFFFFFFFFFFFFFFFFFFFFFFFFFFFFFFFFFFFFFFFFFFFFFFFFFFF
100031e0 FFFFFFFFFFFFFFFFFFFFFFFFFFFFFFFFFFFFFFFFFFFFFFFFFFFFFFFFFFFFFFFF
10003200 FFFFFFFFFFFFFFFFFFFFFFFFFFFFFFFFFFFFFFFFFFFFFFFFFFFFFFFFFFFFFFFF
10003220 FFFFFFFFFFFFFFFFFFFFFFFFFFFFFFFFFFFFFFFFFFFFFFFFFFFFFFFFFFFFFFFF
10003240 FFFFFFFFFFFFFFFFFFFFFFFFFFFFFFFFFFFFFFFFFFFFFFFFFFFFFFFFFFFFFFFF
10003260 FFFFFFFFFFFFFFFFFFFFFFFFFFFFFFFFFFFFFFFFFFFFFFFFFFFFFFFFFFFFFFFF
10003280 FFFFFFFFFFFFFFFFFFFFFFFFFFFFFFFFFFFFFFFFFFFFFFFFFFFFFFFFFFFFFFFF
100032a0 FFFFFFFFFFFFFFFFFFFFFFFFFFFFFFFFFFFFFFFFFFFFFFFFFFFFFFFFFFFFFFFF
100032c0 FFFFFFFFFFFFFFFFFFFFFFFFFFFFFFFFFFFFFFFFFFFFFFFFFFFFFFFFFFFFFFFF
100032e0 FFFFFFFFFFFFFFFFFFFFFFFFFFFFFFFFFFFFFFFFFFFFFFFFFFFFFFFFFFFFFFFF
10003300 FFFFFFFFFFFFFFFFFFFFFFFFFFFFFFFFFFFFFFFFFFFFFFFFFFFFFFFFFFFFFFFF
10003320 FFFFFFFFFFFFFFFFFFFFFFFFFFFFFFFFFFFFFFFFFFFFFFFFFFFFFFFFFFFFFFFF
10003340 FFFFFFFFFFFFFFFFFFFFFFFFFFFFFFFFFFFFFFFFFFFFFFFFFFFFFFFFFFFFFFFF
10003360 FFFFFFFFFFFFFFFFFFFFFFFFFFFFFFFFFFFFFFFFFFFFFFFFFFFFFFFFFFFFFFFF
10003380 FFFFFFFFFFFFFFFFFFFFFFFFFFFFFFFFFFFFFFFFFFFFFFFFFFFFFFFFFFFFFFFF
100033a0 FFFFFFFFFFFFFFFFFFFFFFFFFFFFFFFFFFFFFFFFFFFFFFFFFFFFFFFFFFFFFFFF
100033c0 FFFFFFFFFFFFFFFFFFFFFFFFFFFFFFFFFFFFFFFFFFFFFFFFFFFFFFFFFFFFFFFF
100033e0 FFFFFFFFFFFFFFFFFFFFFFFFFFFFFFFFFFFFFFFFFFFFFFFFFFFFFFFFFFFFFFFF
10003400 FFFFFFFFFFFFFFFFFFFFFFFFFFFFFFFFFFFFFFFFFFFFFFFFFFFFFFFFFFFFFFFF
10003420 FFFFFFFFFFFFFFFFFFFFFFFFFFFFFFFFFFFFFFFFFFFFFFFFFFFFFFFFFFFFFFFF
10003440 FFFFFFFFFFFFFFFFFFFFFFFFFFFFFFFFFFFFFFFFFFFFFFFFFFFFFFFFFFFFFFFF
10003460 FFFFFFFFFFFFFFFFFFFFFFFFFFFFFFFFFFFFFFFFFFFFFFFFFFFFFFFFFFFFFFFF
10003480 FFFFFFFFFFFFFFFFFFFFFFFFFFFFFFFFFFFFFFFFFFFFFFFFFFFFFFFFFFFFFFFF
100034a0 FFFFFFFFFFFFFFFFFFFFFFFFFFFFFFFFFFFFFFFFFFFFFFFFFFFFFFFFFFFFFFFF
100034c0 FFFFFFFFFFFFFFFFFFFFFFFFFFFFFFFFFFFFFFFFFFFFFFFFFFFFFFFFFFFFFFFF
100034e0 FFFFFFFFFFFFFFFFFFFFFFFFFFFFFFFFFFFFFFFFFFFFFFFFFFFFFFFFFFFFFFFF
10003500 FFFFFFFFFFFFFFFFFFFFFFFFFFFFFFFFFFFFFFFFFFFFFFFFFFFFFFFFFFFFFFFF
10003520 FFFFFFFFFFFFFFFFFFFFFFFFFFFFFFFFFFFFFFFFFFFFFFFFFFFFFFFFFFFFFFFF
10003540 FFFFFFFFFFFFFFFFFFFFFFFFFFFFFFFFFFFFFFFFFFFFFFFFFFFFFFFFFFFFFFFF
10003560 FFFFFFFFFFFFFFFFFFFFFFFFFFFFFFFFFFFFFFFFFFFFFFFFFFFFFFFFFFFFFFFF
10003580 FFFFFFFFFFFFFFFFFFFFFFFFFFFFFFFFFFFFFFFFFFFFFFFFFFFFFFFFFFFFFFFF
100035a0 FFFFFFFFFFFFFFFFFFFFFFFFFFFFFFFFFFFFFFFFFFFFFFFFFFFFFFFFFFFFFFFF
100035c0 FFFFFFFFFFFFFFFFFFFFFFFFFFFFFFFFFFFFFFFFFFFFFFFFFFFFFFFFFFFFFFFF
100035e0 FFFFFFFFFFFFFFFFFFFFFFFFFFFFFFFFFFFFFFFFFFFFFFFFFFFFFFFFFFFFFFFF
10003600 FFFFFFFFFFFFFFFFFFFFFFFFFFFFFFFFFFFFFFFFFFFFFFFFFFFFFFFFFFFFFFFF
10003620 FFFFFFFFFFFFFFFFFFFFFFFFFFFFFFFFFFFFFFFFFFFFFFFFFFFFFFFFFFFFFFFF
10003640 FFFFFFFFFFFFFFFFFFFFFFFFFFFFFFFFFFFFFFFFFFFFFFFFFFFFFFFFFFFFFFFF
10003660 FFFFFFFFFFFFFFFFFFFFFFFFFFFFFFFFFFFFFFFFFFFFFFFFFFFFFFFFFFFFFFFF
10003680 FFFFFFFFFFFFFFFFFFFFFFFFFFFFFFFFFFFFFFFFFFFFFFFFFFFFFFFFFFFFFFFF
100036a0 FFFFFFFFFFFFFFFFFFFFFFFFFFFFFFFFFFFFFFFFFFFFFFFFFFFFFFFFFFFFFFFF
100036c0 FFFFFFFFFFFFFFFFFFFFFFFFFFFFFFFFFFFFFFFFFFFFFFFFFFFFFFFFFFFFFFFF
100036e0 FFFFFFFFFFFFFFFFFFFFFFFFFFFFFFFFFFFFFFFFFFFFFFFFFFFFFFFFFFFFFFFF
10003700 FFFFFFFFFFFFFFFFFFFFFFFFFFFFFFFFFFFFFFFFFFFFFFFFFFFFFFFFFFFFFFFF
10003720 FFFFFFFFFFFFFFFFFFFFFFFFFFFFFFFFFFFFFFFFFFFFFFFFFFFFFFFFFFFFFFFF
10003740 FFFFFFFFFFFFFFFFFFFFFFFFFFFFFFFFFFFFFFFFFFFFFFFFFFFFFFFFFFFFFFFF
10003760 FFFFFFFFFFFFFFFFFFFFFFFFFFFFFFFFFFFFFFFFFFFFFFFFFFFFFFFFFFFFFFFF
10003780 FFFFFFFFFFFFFFFFFFFFFFFFFFFFFFFFFFFFFFFFFFFFFFFFFFFFFFFFFFFFFFFF
100037a0 FFFFFFFFFFFFFFFFFFFFFFFFFFFFFFFFFFFFFFFFFFFFFFFFFFFFFFFFFFFFFFFF
100037c0 FFFFFFFFFFFFFFFFFFFFFFFFFFFFFFFFFFFFFFFFFFFFFFFFFFFFFFFFFFFFFFFF
100037e0 FFFFFFFFFFFFFFFFFFFFFFFFFFFFFFFFFFFFFFFFFFFFFFFFFFFFFFFFFFFFFFFF
10003800 FFFFFFFFFFFFFFFFFFFFFFFFFFFFFFFFFFFFFFFFFFFFFFFFFFFFFFFFFFFFFFFF
10003820 FFFFFFFFFFFFFFFFFFFFFFFFFFFFFFFFFFFFFFFFFFFFFFFFFFFFFFFFFFFFFFFF
10003840 FFFFFFFFFFFFFFFFFFFFFFFFFFFFFFFFFFFFFFFFFFFFFFFFFFFFFFFFFFFFFFFF
10003860 FFFFFFFFFFFFFFFFFFFFFFFFFFFFFFFFFFFFFFFFFFFFFFFFFFFFFFFFFFFFFFFF
10003880 FFFFFFFFFFFFFFFFFFFFFFFFFFFFFFFFFFFFFFFFFFFFFFFFFFFFFFFFFFFFFFFF
100038a0 FFFFFFFFFFFFFFFFFFFFFFFFFFFFFFFFFFFFFFFFFFFFFFFFFFFFFFFFFFFFFFFF
100038c0 FFFFFFFFFFFFFFFFFFFFFFFFFFFFFFFFFFFFFFFFFFFFFFFFFFFFFFFFFFFFFFFF
100038e0 FFFFFFFFFFFFFFFFFFFFFFFFFFFFFFFFFFFFFFFFFFFFFFFFFFFFFFFFFFFFFFFF
10003900 FFFFFFFFFFFFFFFFFFFFFFFFFFFFFFFFFFFFFFFFFFFFFFFFFFFFFFFFFFFFFFFF
10003920 FFFFFFFFFFFFFFFFFFFFFFFFFFFFFFFFFFFFFFFFFFFFFFFFFFFFFFFFFFFFFFFF
10003940 FFFFFFFFFFFFFFFFFFFFFFFFFFFFFFFFFFFFFFFFFFFFFFFFFFFFFFFFFFFFFFFF
10003960 FFFFFFFFFFFFFFFFFFFFFFFFFFFFFFFFFFFFFFFFFFFFFFFFFFFFFFFFFFFFFFFF
10003980 FFFFFFFFFFFFFFFFFFFFFFFFFFFFFFFFFFFFFFFFFFFFFFFFFFFFFFFFFFFFFFFF
100039a0 FFFFFFFFFFFFFFFFFFFFFFFFFFFFFFFFFFFFFFFFFFFFFFFFFFFFFFFFFFFFFFFF
100039c0 FFFFFFFFFFFFFFFFFFFFFFFFFFFFFFFFFFFFFFFFFFFFFFFFFFFFFFFFFFFFFFFF
100039e0 FFFFFFFFFFFFFFFFFFFFFFFFFFFFFFFFFFFFFFFFFFFFFFFFFFFFFFFFFFFFFFFF
10003a00 FFFFFFFFFFFFFFFFFFFFFFFFFFFFFFFFFFFFFFFFFFFFFFFFFFFFFFFFFFFFFFFF
10003a20 FFFFFFFFFFFFFFFFFFFFFFFFFFFFFFFFFFFFFFFFFFFFFFFFFFFFFFFFFFFFFFFF
10003a40 FFFFFFFFFFFFFFFFFFFFFFFFFFFFFFFFFFFFFFFFFFFFFFFFFFFFFFFFFFFFFFFF
10003a60 FFFFFFFFFFFFFFFFFFFFFFFFFFFFFFFFFFFFFFFFFFFFFFFFFFFFFFFFFFFFFFFF
10003a80 FFFFFFFFFFFFFFFFFFFFFFFFFFFFFFFFFFFFFFFFFFFFFFFFFFFFFFFFFFFFFFFF
10003aa0 FFFFFFFFFFFFFFFFFFFFFFFFFFFFFFFFFFFFFFFFFFFFFFFFFFFFFFFFFFFFFFFF
10003ac0 FFFFFFFFFFFFFFFFFFFFFFFFFFFFFFFFFFFFFFFFFFFFFFFFFFFFFFFFFFFFFFFF
10003ae0 FFFFFFFFFFFFFFFFFFFFFFFFFFFFFFFFFFFFFFFFFFFFFFFFFFFFFFFFFFFFFFFF
10003b00 FFFFFFFFFFFFFFFFFFFFFFFFFFFFFFFFFFFFFFFFFFFFFFFFFFFFFFFFFFFFFFFF
10003b20 FFFFFFFFFFFFFFFFFFFFFFFFFFFFFFFFFFFFFFFFFFFFFFFFFFFFFFFFFFFFFFFF
10003b40 FFFFFFFFFFFFFFFFFFFFFFFFFFFFFFFFFFFFFFFFFFFFFFFFFFFFFFFFFFFFFFFF
10003b60 FFFFFFFFFFFFFFFFFFFFFFFFFFFFFFFFFFFFFFFFFFFFFFFFFFFFFFFFFFFFFFFF
10003b80 FFFFFFFFFFFFFFFFFFFFFFFFFFFFFFFFFFFFFFFFFFFFFFFFFFFFFFFFFFFFFFFF
10003ba0 FFFFFFFFFFFFFFFFFFFFFFFFFFFFFFFFFFFFFFFFFFFFFFFFFFFFFFFFFFFFFFFF
10003bc0 FFFFFFFFFFFFFFFFFFFFFFFFFFFFFFFFFFFFFFFFFFFFFFFFFFFFFFFFFFFFFFFF
10003be0 FFFFFFFFFFFFFFFFFFFFFFFFFFFFFFFFFFFFFFFFFFFFFFFFFFFFFFFFFFFFFFFF
10003c00 FFFFFFFFFFFFFFFFFFFFFFFFFFFFFFFFFFFFFFFFFFFFFFFFFFFFFFFFFFFFFFFF
10003c20 FFFFFFFFFFFFFFFFFFFFFFFFFFFFFFFFFFFFFFFFFFFFFFFFFFFFFFFFFFFFFFFF
10003c40 FFFFFFFFFFFFFFFFFFFFFFFFFFFFFFFFFFFFFFFFFFFFFFFFFFFFFFFFFFFFFFFF
10003c60 FFFFFFFFFFFFFFFFFFFFFFFFFFFFFFFFFFFFFFFFFFFFFFFFFFFFFFFFFFFFFFFF
10003c80 FFFFFFFFFFFFFFFFFFFFFFFFFFFFFFFFFFFFFFFFFFFFFFFFFFFFFFFFFFFFFFFF
10003ca0 FFFFFFFFFFFFFFFFFFFFFFFFFFFFFFFFFFFFFFFFFFFFFFFFFFFFFFFFFFFFFFFF
10003cc0 FFFFFFFFFFFFFFFFFFFFFFFFFFFFFFFFFFFFFFFFFFFFFFFFFFFFFFFFFFFFFFFF
10003ce0 FFFFFFFFFFFFFFFFFFFFFFFFFFFFFFFFFFFFFFFFFFFFFFFFFFFFFFFFFFFFFFFF
10003d00 FFFFFFFFFFFFFFFFFFFFFFFFFFFFFFFFFFFFFFFFFFFFFFFFFFFFFFFFFFFFFFFF
10003d20 FFFFFFFFFFFFFFFFFFFFFFFFFFFFFFFFFFFFFFFFFFFFFFFFFFFFFFFFFFFFFFFF
10003d40 FFFFFFFFFFFFFFFFFFFFFFFFFFFFFFFFFFFFFFFFFFFFFFFFFFFFFFFFFFFFFFFF
10003d60 FFFFFFFFFFFFFFFFFFFFFFFFFFFFFFFFFFFFFFFFFFFFFFFFFFFFFFFFFFFFFFFF
10003d80 FFFFFFFFFFFFFFFFFFFFFFFFFFFFFFFFFFFFFFFFFFFFFFFFFFFFFFFFFFFFFFFF
10003da0 FFFFFFFFFFFFFFFFFFFFFFFFFFFFFFFFFFFFFFFFFFFFFFFFFFFFFFFFFFFFFFFF
10003dc0 FFFFFFFFFFFFFFFFFFFFFFFFFFFFFFFFFFFFFFFFFFFFFFFFFFFFFFFFFFFFFFFF
10003de0 FFFFFFFFFFFFFFFFFFFFFFFFFFFFFFFFFFFFFFFFFFFFFFFFFFFFFFFFFFFFFFFF
10003e00 FFFFFFFFFFFFFFFFFFFFFFFFFFFFFFFFFFFFFFFFFFFFFFFFFFFFFFFFFFFFFFFF
10003e20 FFFFFFFFFFFFFFFFFFFFFFFFFFFFFFFFFFFFFFFFFFFFFFFFFFFFFFFFFFFFFFFF
10003e40 FFFFFFFFFFFFFFFFFFFFFFFFFFFFFFFFFFFFFFFFFFFFFFFFFFFFFFFFFFFFFFFF
10003e60 FFFFFFFFFFFFFFFFFFFFFFFFFFFFFFFFFFFFFFFFFFFFFFFFFFFFFFFFFFFFFFFF
10003e80 FFFFFFFFFFFFFFFFFFFFFFFFFFFFFFFFFFFFFFFFFFFFFFFFFFFFFFFFFFFFFFFF
10003ea0 FFFFFFFFFFFFFFFFFFFFFFFFFFFFFFFFFFFFFFFFFFFFFFFFFFFFFFFFFFFFFFFF
10003ec0 FFFFFFFFFFFFFFFFFFFFFFFFFFFFFFFFFFFFFFFFFFFFFFFFFFFFFFFFFFFFFFFF
10003ee0 FFFFFFFFFFFFFFFFFFFFFFFFFFFFFFFFFFFFFFFFFFFFFFFFFFFFFFFFFFFFFFFF
10003f00 FFFFFFFFFFFFFFFFFFFFFFFFFFFFFFFFFFFFFFFFFFFFFFFFFFFFFFFFFFFFFFFF
10003f20 FFFFFFFFFFFFFFFFFFFFFFFFFFFFFFFFFFFFFFFFFFFFFFFFFFFFFFFFFFFFFFFF
10003f40 FFFFFFFFFFFFFFFFFFFFFFFFFFFFFFFFFFFFFFFFFFFFFFFFFFFFFFFFFFFFFFFF
10003f60 FFFFFFFFFFFFFFFFFFFFFFFFFFFFFFFFFFFFFFFFFFFFFFFFFFFFFFFFFFFFFFFF
10003f80 FFFFFFFFFFFFFFFFFFFFFFFFFFFFFFFFFFFFFFFFFFFFFFFFFFFFFFFFFFFFFFFF
10003fa0 FFFFFFFFFFFFFFFFFFFFFFFFFFFFFFFFFFFFFFFFFFFFFFFFFFFFFFFFFFFFFFFF
10003fc0 FFFFFFFFFFFFFFFFFFFFFFFFFFFFFFFFFFFFFFFFFFFFFFFFFFFFFFFFFFFFFFFF
10003fe0 FFFFFFFFFFFFFFFFFFFFFFFFFFFFFFFFFFFFFFFFFFFFFFFFFFFFFFFFFFFFFFFF
10004000 FFFFFFFFFFFFFFFFFFFFFFFFFFFFFFFFFFFFFFFFFFFFFFFFFFFFFFFFFFFFFFFF
10004020 FFFFFFFFFFFFFFFFFFFFFFFFFFFFFFFFFFFFFFFFFFFFFFFFFFFFFFFFFFFFFFFF
10004040 FFFFFFFFFFFFFFFFFFFFFFFFFFFFFFFFFFFFFFFFFFFFFFFFFFFFFFFFFFFFFFFF
10004060 FFFFFFFFFFFFFFFFFFFFFFFFFFFFFFFFFFFFFFFFFFFFFFFFFFFFFFFFFFFFFFFF
10004080 FFFFFFFFFFFFFFFFFFFFFFFFFFFFFFFFFFFFFFFFFFFFFFFFFFFFFFFFFFFFFFFF
100040a0 FFFFFFFFFFFFFFFFFFFFFFFFFFFFFFFFFFFFFFFFFFFFFFFFFFFFFFFFFFFFFFFF
100040c0 FFFFFFFFFFFFFFFFFFFFFFFFFFFFFFFFFFFFFFFFFFFFFFFFFFFFFFFFFFFFFFFF
100040e0 FFFFFFFFFFFFFFFFFFFFFFFFFFFFFFFFFFFFFFFFFFFFFFFFFFFFFFFFFFFFFFFF
10004100 FFFFFFFFFFFFFFFFFFFFFFFFFFFFFFFFFFFFFFFFFFFFFFFFFFFFFFFFFFFFFFFF
10004120 FFFFFFFFFFFFFFFFFFFFFFFFFFFFFFFFFFFFFFFFFFFFFFFFFFFFFFFFFFFFFFFF
10004140 FFFFFFFFFFFFFFFFFFFFFFFFFFFFFFFFFFFFFFFFFFFFFFFFFFFFFFFFFFFFFFFF
10004160 FFFFFFFFFFFFFFFFFFFFFFFFFFFFFFFFFFFFFFFFFFFFFFFFFFFFFFFFFFFFFFFF
10004180 FFFFFFFFFFFFFFFFFFFFFFFFFFFFFFFFFFFFFFFFFFFFFFFFFFFFFFFFFFFFFFFF
100041a0 FFFFFFFFFFFFFFFFFFFFFFFFFFFFFFFFFFFFFFFFFFFFFFFFFFFFFFFFFFFFFFFF
100041c0 FFFFFFFFFFFFFFFFFFFFFFFFFFFFFFFFFFFFFFFFFFFFFFFFFFFFFFFFFFFFFFFF
100041e0 FFFFFFFFFFFFFFFFFFFFFFFFFFFFFFFFFFFFFFFFFFFFFFFFFFFFFFFFFFFFFFFF
10004200 FFFFFFFFFFFFFFFFFFFFFFFFFFFFFFFFFFFFFFFFFFFFFFFFFFFFFFFFFFFFFFFF
10004220 FFFFFFFFFFFFFFFFFFFFFFFFFFFFFFFFFFFFFFFFFFFFFFFFFFFFFFFFFFFFFFFF
10004240 FFFFFFFFFFFFFFFFFFFFFFFFFFFFFFFFFFFFFFFFFFFFFFFFFFFFFFFFFFFFFFFF
10004260 FFFFFFFFFFFFFFFFFFFFFFFFFFFFFFFFFFFFFFFFFFFFFFFFFFFFFFFFFFFFFFFF
10004280 FFFFFFFFFFFFFFFFFFFFFFFFFFFFFFFFFFFFFFFFFFFFFFFFFFFFFFFFFFFFFFFF
100042a0 FFFFFFFFFFFFFFFFFFFFFFFFFFFFFFFFFFFFFFFFFFFFFFFFFFFFFFFFFFFFFFFF
100042c0 FFFFFFFFFFFFFFFFFFFFFFFFFFFFFFFFFFFFFFFFFFFFFFFFFFFFFFFFFFFFFFFF
100042e0 FFFFFFFFFFFFFFFFFFFFFFFFFFFFFFFFFFFFFFFFFFFFFFFFFFFFFFFFFFFFFFFF
10004300 FFFFFFFFFFFFFFFFFFFFFFFFFFFFFFFFFFFFFFFFFFFFFFFFFFFFFFFFFFFFFFFF
10004320 FFFFFFFFFFFFFFFFFFFFFFFFFFFFFFFFFFFFFFFFFFFFFFFFFFFFFFFFFFFFFFFF
10004340 FFFFFFFFFFFFFFFFFFFFFFFFFFFFFFFFFFFFFFFFFFFFFFFFFFFFFFFFFFFFFFFF
10004360 FFFFFFFFFFFFFFFFFFFFFFFFFFFFFFFFFFFFFFFFFFFFFFFFFFFFFFFFFFFFFFFF
10004380 FFFFFFFFFFFFFFFFFFFFFFFFFFFFFFFFFFFFFFFFFFFFFFFFFFFFFFFFFFFFFFFF
100043a0 FFFFFFFFFFFFFFFFFFFFFFFFFFFFFFFFFFFFFFFFFFFFFFFFFFFFFFFFFFFFFFFF
100043c0 FFFFFFFFFFFFFFFFFFFFFFFFFFFFFFFFFFFFFFFFFFFFFFFFFFFFFFFFFFFFFFFF
100043e0 FFFFFFFFFFFFFFFFFFFFFFFFFFFFFFFFFFFFFFFFFFFFFFFFFFFFFFFFFFFFFFFF
10004400 FFFFFFFFFFFFFFFFFFFFFFFFFFFFFFFFFFFFFFFFFFFFFFFFFFFFFFFFFFFFFFFF
10004420 FFFFFFFFFFFFFFFFFFFFFFFFFFFFFFFFFFFFFFFFFFFFFFFFFFFFFFFFFFFFFFFF
10004440 FFFFFFFFFFFFFFFFFFFFFFFFFFFFFFFFFFFFFFFFFFFFFFFFFFFFFFFFFFFFFFFF
10004460 FFFFFFFFFFFFFFFFFFFFFFFFFFFFFFFFFFFFFFFFFFFFFFFFFFFFFFFFFFFFFFFF
10004480 FFFFFFFFFFFFFFFFFFFFFFFFFFFFFFFFFFFFFFFFFFFFFFFFFFFFFFFFFFFFFFFF
100044a0 FFFFFFFFFFFFFFFFFFFFFFFFFFFFFFFFFFFFFFFFFFFFFFFFFFFFFFFFFFFFFFFF
100044c0 FFFFFFFFFFFFFFFFFFFFFFFFFFFFFFFFFFFFFFFFFFFFFFFFFFFFFFFFFFFFFFFF
100044e0 FFFFFFFFFFFFFFFFFFFFFFFFFFFFFFFFFFFFFFFFFFFFFFFFFFFFFFFFFFFFFFFF
10004500 FFFFFFFFFFFFFFFFFFFFFFFFFFFFFFFFFFFFFFFFFFFFFFFFFFFFFFFFFFFFFFFF
10004520 FFFFFFFFFFFFFFFFFFFFFFFFFFFFFFFFFFFFFFFFFFFFFFFFFFFFFFFFFFFFFFFF
10004540 FFFFFFFFFFFFFFFFFFFFFFFFFFFFFFFFFFFFFFFFFFFFFFFFFFFFFFFFFFFFFFFF
10004560 FFFFFFFFFFFFFFFFFFFFFFFFFFFFFFFFFFFFFFFFFFFFFFFFFFFFFFFFFFFFFFFF
10004580 FFFFFFFFFFFFFFFFFFFFFFFFFFFFFFFFFFFFFFFFFFFFFFFFFFFFFFFFFFFFFFFF
100045a0 FFFFFFFFFFFFFFFFFFFFFFFFFFFFFFFFFFFFFFFFFFFFFFFFFFFFFFFFFFFFFFFF
100045c0 FFFFFFFFFFFFFFFFFFFFFFFFFFFFFFFFFFFFFFFFFFFFFFFFFFFFFFFFFFFFFFFF
100045e0 FFFFFFFFFFFFFFFFFFFFFFFFFFFFFFFFFFFFFFFFFFFFFFFFFFFFFFFFFFFFFFFF
10004600 FFFFFFFFFFFFFFFFFFFFFFFFFFFFFFFFFFFFFFFFFFFFFFFFFFFFFFFFFFFFFFFF
10004620 FFFFFFFFFFFFFFFFFFFFFFFFFFFFFFFFFFFFFFFFFFFFFFFFFFFFFFFFFFFFFFFF
10004640 FFFFFFFFFFFFFFFFFFFFFFFFFFFFFFFFFFFFFFFFFFFFFFFFFFFFFFFFFFFFFFFF
10004660 FFFFFFFFFFFFFFFFFFFFFFFFFFFFFFFFFFFFFFFFFFFFFFFFFFFFFFFFFFFFFFFF
10004680 FFFFFFFFFFFFFFFFFFFFFFFFFFFFFFFFFFFFFFFFFFFFFFFFFFFFFFFFFFFFFFFF
100046a0 FFFFFFFFFFFFFFFFFFFFFFFFFFFFFFFFFFFFFFFFFFFFFFFFFFFFFFFFFFFFFFFF
100046c0 FFFFFFFFFFFFFFFFFFFFFFFFFFFFFFFFFFFFFFFFFFFFFFFFFFFFFFFFFFFFFFFF
100046e0 FFFFFFFFFFFFFFFFFFFFFFFFFFFFFFFFFFFFFFFFFFFFFFFFFFFFFFFFFFFFFFFF
10004700 FFFFFFFFFFFFFFFFFFFFFFFFFFFFFFFFFFFFFFFFFFFFFFFFFFFFFFFFFFFFFFFF
10004720 FFFFFFFFFFFFFFFFFFFFFFFFFFFFFFFFFFFFFFFFFFFFFFFFFFFFFFFFFFFFFFFF
10004740 FFFFFFFFFFFFFFFFFFFFFFFFFFFFFFFFFFFFFFFFFFFFFFFFFFFFFFFFFFFFFFFF
10004760 FFFFFFFFFFFFFFFFFFFFFFFFFFFFFFFFFFFFFFFFFFFFFFFFFFFFFFFFFFFFFFFF
10004780 FFFFFFFFFFFFFFFFFFFFFFFFFFFFFFFFFFFFFFFFFFFFFFFFFFFFFFFFFFFFFFFF
100047a0 FFFFFFFFFFFFFFFFFFFFFFFFFFFFFFFFFFFFFFFFFFFFFFFFFFFFFFFFFFFFFFFF
100047c0 FFFFFFFFFFFFFFFFFFFFFFFFFFFFFFFFFFFFFFFFFFFFFFFFFFFFFFFFFFFFFFFF
100047e0 FFFFFFFFFFFFFFFFFFFFFFFFFFFFFFFFFFFFFFFFFFFFFFFFFFFFFFFFFFFFFFFF
10004800 FFFFFFFFFFFFFFFFFFFFFFFFFFFFFFFFFFFFFFFFFFFFFFFFFFFFFFFFFFFFFFFF
10004820 FFFFFFFFFFFFFFFFFFFFFFFFFFFFFFFFFFFFFFFFFFFFFFFFFFFFFFFFFFFFFFFF
10004840 FFFFFFFFFFFFFFFFFFFFFFFFFFFFFFFFFFFFFFFFFFFFFFFFFFFFFFFFFFFFFFFF
10004860 FFFFFFFFFFFFFFFFFFFFFFFFFFFFFFFFFFFFFFFFFFFFFFFFFFFFFFFFFFFFFFFF
10004880 FFFFFFFFFFFFFFFFFFFFFFFFFFFFFFFFFFFFFFFFFFFFFFFFFFFFFFFFFFFFFFFF
100048a0 FFFFFFFFFFFFFFFFFFFFFFFFFFFFFFFFFFFFFFFFFFFFFFFFFFFFFFFFFFFFFFFF
100048c0 FFFFFFFFFFFFFFFFFFFFFFFFFFFFFFFFFFFFFFFFFFFFFFFFFFFFFFFFFFFFFFFF
100048e0 FFFFFFFFFFFFFFFFFFFFFFFFFFFFFFFFFFFFFFFFFFFFFFFFFFFFFFFFFFFFFFFF
10004900 FFFFFFFFFFFFFFFFFFFFFFFFFFFFFFFFFFFFFFFFFFFFFFFFFFFFFFFFFFFFFFFF
10004920 FFFFFFFFFFFFFFFFFFFFFFFFFFFFFFFFFFFFFFFFFFFFFFFFFFFFFFFFFFFFFFFF
10004940 FFFFFFFFFFFFFFFFFFFFFFFFFFFFFFFFFFFFFFFFFFFFFFFFFFFFFFFFFFFFFFFF
10004960 FFFFFFFFFFFFFFFFFFFFFFFFFFFFFFFFFFFFFFFFFFFFFFFFFFFFFFFFFFFFFFFF
10004980 FFFFFFFFFFFFFFFFFFFFFFFFFFFFFFFFFFFFFFFFFFFFFFFFFFFFFFFFFFFFFFFF
100049a0 FFFFFFFFFFFFFFFFFFFFFFFFFFFFFFFFFFFFFFFFFFFFFFFFFFFFFFFFFFFFFFFF
100049c0 FFFFFFFFFFFFFFFFFFFFFFFFFFFFFFFFFFFFFFFFFFFFFFFFFFFFFFFFFFFFFFFF
100049e0 FFFFFFFFFFFFFFFFFFFFFFFFFFFFFFFFFFFFFFFFFFFFFFFFFFFFFFFFFFFFFFFF
10004a00 FFFFFFFFFFFFFFFFFFFFFFFFFFFFFFFFFFFFFFFFFFFFFFFFFFFFFFFFFFFFFFFF
10004a20 FFFFFFFFFFFFFFFFFFFFFFFFFFFFFFFFFFFFFFFFFFFFFFFFFFFFFFFFFFFFFFFF
10004a40 FFFFFFFFFFFFFFFFFFFFFFFFFFFFFFFFFFFFFFFFFFFFFFFFFFFFFFFFFFFFFFFF
10004a60 FFFFFFFFFFFFFFFFFFFFFFFFFFFFFFFFFFFFFFFFFFFFFFFFFFFFFFFFFFFFFFFF
10004a80 FFFFFFFFFFFFFFFFFFFFFFFFFFFFFFFFFFFFFFFFFFFFFFFFFFFFFFFFFFFFFFFF
10004aa0 FFFFFFFFFFFFFFFFFFFFFFFFFFFFFFFFFFFFFFFFFFFFFFFFFFFFFFFFFFFFFFFF
10004ac0 FFFFFFFFFFFFFFFFFFFFFFFFFFFFFFFFFFFFFFFFFFFFFFFFFFFFFFFFFFFFFFFF
10004ae0 FFFFFFFFFFFFFFFFFFFFFFFFFFFFFFFFFFFFFFFFFFFFFFFFFFFFFFFFFFFFFFFF
10004b00 FFFFFFFFFFFFFFFFFFFFFFFFFFFFFFFFFFFFFFFFFFFFFFFFFFFFFFFFFFFFFFFF
10004b20 FFFFFFFFFFFFFFFFFFFFFFFFFFFFFFFFFFFFFFFFFFFFFFFFFFFFFFFFFFFFFFFF
10004b40 FFFFFFFFFFFFFFFFFFFFFFFFFFFFFFFFFFFFFFFFFFFFFFFFFFFFFFFFFFFFFFFF
10004b60 FFFFFFFFFFFFFFFFFFFFFFFFFFFFFFFFFFFFFFFFFFFFFFFFFFFFFFFFFFFFFFFF
10004b80 FFFFFFFFFFFFFFFFFFFFFFFFFFFFFFFFFFFFFFFFFFFFFFFFFFFFFFFFFFFFFFFF
10004ba0 FFFFFFFFFFFFFFFFFFFFFFFFFFFFFFFFFFFFFFFFFFFFFFFFFFFFFFFFFFFFFFFF
10004bc0 FFFFFFFFFFFFFFFFFFFFFFFFFFFFFFFFFFFFFFFFFFFFFFFFFFFFFFFFFFFFFFFF
10004be0 FFFFFFFFFFFFFFFFFFFFFFFFFFFFFFFFFFFFFFFFFFFFFFFFFFFFFFFFFFFFFFFF
10004c00 FFFFFFFFFFFFFFFFFFFFFFFFFFFFFFFFFFFFFFFFFFFFFFFFFFFFFFFFFFFFFFFF
10004c20 FFFFFFFFFFFFFFFFFFFFFFFFFFFFFFFFFFFFFFFFFFFFFFFFFFFFFFFFFFFFFFFF
10004c40 FFFFFFFFFFFFFFFFFFFFFFFFFFFFFFFFFFFFFFFFFFFFFFFFFFFFFFFFFFFFFFFF
10004c60 FFFFFFFFFFFFFFFFFFFFFFFFFFFFFFFFFFFFFFFFFFFFFFFFFFFFFFFFFFFFFFFF
10004c80 FFFFFFFFFFFFFFFFFFFFFFFFFFFFFFFFFFFFFFFFFFFFFFFFFFFFFFFFFFFFFFFF
10004ca0 FFFFFFFFFFFFFFFFFFFFFFFFFFFFFFFFFFFFFFFFFFFFFFFFFFFFFFFFFFFFFFFF
10004cc0 FFFFFFFFFFFFFFFFFFFFFFFFFFFFFFFFFFFFFFFFFFFFFFFFFFFFFFFFFFFFFFFF
10004ce0 FFFFFFFFFFFFFFFFFFFFFFFFFFFFFFFFFFFFFFFFFFFFFFFFFFFFFFFFFFFFFFFF
10004d00 FFFFFFFFFFFFFFFFFFFFFFFFFFFFFFFFFFFFFFFFFFFFFFFFFFFFFFFFFFFFFFFF
10004d20 FFFFFFFFFFFFFFFFFFFFFFFFFFFFFFFFFFFFFFFFFFFFFFFFFFFFFFFFFFFFFFFF
10004d40 FFFFFFFFFFFFFFFFFFFFFFFFFFFFFFFFFFFFFFFFFFFFFFFFFFFFFFFFFFFFFFFF
10004d60 FFFFFFFFFFFFFFFFFFFFFFFFFFFFFFFFFFFFFFFFFFFFFFFFFFFFFFFFFFFFFFFF
10004d80 FFFFFFFFFFFFFFFFFFFFFFFFFFFFFFFFFFFFFFFFFFFFFFFFFFFFFFFFFFFFFFFF
10004da0 FFFFFFFFFFFFFFFFFFFFFFFFFFFFFFFFFFFFFFFFFFFFFFFFFFFFFFFFFFFFFFFF
10004dc0 FFFFFFFFFFFFFFFFFFFFFFFFFFFFFFFFFFFFFFFFFFFFFFFFFFFFFFFFFFFFFFFF
10004de0 FFFFFFFFFFFFFFFFFFFFFFFFFFFFFFFFFFFFFFFFFFFFFFFFFFFFFFFFFFFFFFFF
10004e00 FFFFFFFFFFFFFFFFFFFFFFFFFFFFFFFFFFFFFFFFFFFFFFFFFFFFFFFFFFFFFFFF
10004e20 FFFFFFFFFFFFFFFFFFFFFFFFFFFFFFFFFFFFFFFFFFFFFFFFFFFFFFFFFFFFFFFF
10004e40 FFFFFFFFFFFFFFFFFFFFFFFFFFFFFFFFFFFFFFFFFFFFFFFFFFFFFFFFFFFFFFFF
10004e60 FFFFFFFFFFFFFFFFFFFFFFFFFFFFFFFFFFFFFFFFFFFFFFFFFFFFFFFFFFFFFFFF
10004e80 FFFFFFFFFFFFFFFFFFFFFFFFFFFFFFFFFFFFFFFFFFFFFFFFFFFFFFFFFFFFFFFF
10004ea0 FFFFFFFFFFFFFFFFFFFFFFFFFFFFFFFFFFFFFFFFFFFFFFFFFFFFFFFFFFFFFFFF
10004ec0 FFFFFFFFFFFFFFFFFFFFFFFFFFFFFFFFFFFFFFFFFFFFFFFFFFFFFFFFFFFFFFFF
10004ee0 FFFFFFFFFFFFFFFFFFFFFFFFFFFFFFFFFFFFFFFFFFFFFFFFFFFFFFFFFFFFFFFF
10004f00 FFFFFFFFFFFFFFFFFFFFFFFFFFFFFFFFFFFFFFFFFFFFFFFFFFFFFFFFFFFFFFFF
10004f20 FFFFFFFFFFFFFFFFFFFFFFFFFFFFFFFFFFFFFFFFFFFFFFFFFFFFFFFFFFFFFFFF
10004f40 FFFFFFFFFFFFFFFFFFFFFFFFFFFFFFFFFFFFFFFFFFFFFFFFFFFFFFFFFFFFFFFF
10004f60 FFFFFFFFFFFFFFFFFFFFFFFFFFFFFFFFFFFFFFFFFFFFFFFFFFFFFFFFFFFFFFFF
10004f80 FFFFFFFFFFFFFFFFFFFFFFFFFFFFFFFFFFFFFFFFFFFFFFFFFFFFFFFFFFFFFFFF
10004fa0 FFFFFFFFFFFFFFFFFFFFFFFFFFFFFFFFFFFFFFFFFFFFFFFFFFFFFFFFFFFFFFFF
10004fc0 FFFFFFFFFFFFFFFFFFFFFFFFFFFFFFFFFFFFFFFFFFFFFFFFFFFFFFFFFFFFFFFF
10004fe0 FFFFFFFFFFFFFFFFFFFFFFFFFFFFFFFFFFFFFFFFFFFFFFFFFFFFFFFFFFFFFFFF
